:020000040000FA
:10000000A8520020B1020000B9020000BB020000AB
:10001000BD020000BF020000C1020000000000009D
:1000200000000000000000000000000019020000B5
:10003000C50200000000000055020000C9020000D7
:10004000B5050000CB02000025090000CB0200002E
:100050007D060000CB0200007D030000CB02000003
:10006000CB020000CB020000CB020000CB0200005C
:10007000CB020000CB020000CB020000CB0200004C
:10008000CB02000005060000CB020000CB020000FE
:10009000CB020000CB020000CB020000CB0200002C
:1000A000CB020000CB020000CB020000CB0200001C
:1000B000CB020000CB0200000000000000000000A6
:1000C000CB020000CB020000CB020000CB020000FC
:1000D000CB020000CB020000CB02000000000000B9
:1000E0000000000000000000000000000000000010
:1000F0000000000000000000000000000000000000
:1001000000000000000000000000000000000000EF
:1001100000000000000000000000000000000000DF
:1001200000000000000000000000000000000000CF
:1001300000000000000000000000000000000000BF
:1001400000000000000000000000000000000000AF
:10015000000000000000000000000000000000009F
:10016000000000000000000000000000000000008F
:10017000000000000000000000000000000000007F
:10018000000000000000000000000000000000006F
:10019000000000000000000000000000000000005F
:1001A000000000000000000000000000000000004F
:1001B000000000000000000000000000000000003F
:1001C000000000000000000000000000000000002F
:1001D000000000000000000000000000000000001F
:1001E000000000000000000000000000000000000F
:1001F00000000000000000000000000000000000FF
:10020000DFF810D000F0A8F800480047B918000047
:10021000AFF30080A8520020244B19680868B0E8AA
:10022000F04F80F30988BFF36F8F4FF0000080F329
:1002300011887047000000000548006880F30888B6
:1002400062B661B6BFF34F8FBFF36F8F00DF000060
:1002500000000000EFF30980BFF36F8F134B1A68A3
:100260001EF0100F08BF20ED108A20E9F04F10603B
:1002700008B44FF0400080F31188BFF34F8FBFF3F5
:100280006F8F03F06DF84FF0000080F3118808BC09
:1002900019680868B0E8F04F1EF0100F08BFB0EC06
:1002A000108A80F30988BFF36F8F704768000020C1
:1002B0000648804706480047FEE7FEE7FEE7FEE700
:1002C000FEE7FEE7FEE7FEE7FEE7FEE7A106000029
:1002D00001020000202A04DB203A21FA02F000216A
:1002E000704721FA02F3D040C2F120029140084346
:1002F0001946704740EA01039B0703D009E008C98B
:10030000121F08C0042AFAD203E011F8013B00F8DA
:10031000013B521EF9D27047D2B201E000F8012B26
:10032000491EFBD270470022F6E710B513460A4675
:1003300004461946FFF7F0FF204610BD30B50446CD
:100340000020034600E05B1C934203D2E05CCD5CDE
:10035000401BF8D030BD0000064C074D06E0E068B9
:1003600040F0010394E8070098471034AC42F6D3FC
:10037000FFF74AFF0C4000002C4000002DE9F04F31
:1003800089B04FF00008002008904FF4807007906B
:100390000126002413E0079801F01EFE48B100BFBB
:1003A00081480068304020B1079801F007FE48EA14
:1003B000060876000798001D80B20790641C082C80
:1003C000E9D34FF4BE7001F007FE50B14FF4BE7098
:1003D00001F0F4FD48F0004808AA0121002001F0D6
:1003E000D3FD08F0FF0000B3012600241BE006EA5D
:1003F0000800B0B100BF6D4850F82400C0F30420DD
:10040000074600BF694850F82400C0F30140814608
:10041000204600F0E5FB054615B149463846A84799
:1004200000BF7600641C082CE1D308F000400028CF
:100430007ED0002006900590002505E04FF0FF30AB
:1004400004A941F825006D1C002DF7D000BF002045
:10045000069000246FE05648005D0390039820F05A
:10046000C00753480057401C002863D004A93846F1
:1004700001F0F6FA00285DD003984FEA901A38464A
:1004800000F0B6FB814600F0ABFB0290029810B979
:10049000BAF1030F4BD1BAF1030F11D1394605A8B8
:1004A0000246CB0801F0070112F803C04FF0010E1D
:1004B0000EFA01FE4CEA0E0C02F803C000BF00BFAA
:1004C00000BF00BF4FF0A041084600F5E06151F8C1
:1004D0002710C1F3014900BF08A9384601F0C0FA4E
:1004E0008346BBF1000F02D0B9F1020F05D0BBF17A
:1004F000000F1BD1B9F1030F18D1BAF1030F0FD1BF
:10050000B9F1020F01D1032000E00220019038462A
:10051000019901F009FD0698401CC0B2069000BF89
:10052000029818B151463846029A904700BF00E041
:1005300036E000BF641C042C8DD3069858B3012705
:1005400003AA0121002001F01FFD00250AE003A8F5
:1005500050F8250008A951F82510884201D000273D
:1005600002E06D1C002DF2D000BF17B100200690F4
:1005700010E000250CE003A850F8250008A941F878
:10058000250005A850F8250004A941F825006D1C98
:10059000002DF0D000BF069800287FF458AF00BFB0
:1005A00009B0BDE8F08F0000046300401065004012
:1005B0003801002010B54FF4807001F05CFA60B192
:1005C0004FF4807001F060FA012001F067FA012019
:1005D0000B494870002000F011FB4FF4827001F0CD
:1005E0004AFA58B14FF4827001F04EFA022001F03D
:1005F00055FA01200249887000F000FB10BD000090
:1006000084010020F8B5002400BF00BFEFF3118083
:100610000546402000F0B3F900BF2E4600BF144845
:100620000068074613488115002242504258009244
:1006300000BF00BF03F04CFA381A20F07F45012DAF
:1006400004D903F035FA022800D0012502E003F0B6
:1006500045FA0443281EA5F10105F8D124B14FF055
:1006600080500549086040BF304600F088F9F8BD69
:10067000041501400010014004ED00E010B5034CEA
:1006800021464FF0402001F0BDF810BD4001002090
:1006900001480249086070470090D003C400002060
:1006A00010B500F03FFF28B18E480088C0F3042049
:1006B0008D49086000F08AFF10B18C488C4948676A
:1006C00000F09CFF30B18748E0380068C0F342304A
:1006D0008849086000F0BCFF28B18748006820F016
:1006E00080708549086000F0CBFF48B10020834945
:1006F00008604FF08041C1F810017E49091F086071
:1007000000F0E8FF18B103207A496431086000F076
:10071000F9FF68B105207A490860012078497831ED
:10072000086000207649083108603F20091F0860F2
:1007300001F000F8002855D06A48E030006871499F
:1007400008606848E4300068091D08606548E830C2
:100750000068091D08606348EC300068091D0860E6
:100760006048F0300068091D08605E48F430006899
:10077000091D08605B48F830006862492031086054
:100780005848FC300068091D08605F480068091D72
:1007900008605D48001D0068091D08605A4808305F
:1007A0000068091D086058480C300068091D086081
:1007B00055481030006853494031086052481430A1
:1007C0000068091D0860504818300068091D08605D
:1007D0004D481C300068091D08604B4820300068F7
:1007E000091D086000F074FE30B13E48CC38006846
:1007F00000F04F004549086000F0BEFE40B144489B
:10080000006800F0010018B16FF001004049086075
:1008100039487438006840F470003749743908600A
:1008200000BF00BF00BFBFF34F8F00BF00BF00BFBE
:1008300000BF00BF00BFBFF36F8F00BF00BF00BF8E
:100840003448006800F0004028B93248001D0068B4
:1008500000F00040F0B301202F49086000BF2F488E
:1008600000680028FBD015202A49086000BF2B48EB
:1008700000680028FBD015212648001D016000BF3C
:10088000264800680028FBD000202349086000BFEC
:10089000224800680028FBD000BF00BF00BF00BF97
:1008A00000BFBFF34F8F00BF00BF00BF1248F0383A
:1008B000006800F4E0601A490843001D0E49F03951
:1008C000086000BF00BF00BFBFF34F8F00BF00BF75
:1008D00000BF00E002E000BF00BFFDE7FFF7D8FE69
:1008E00010BD000024030010403501400DF0ADBAEA
:1008F00000C007403C050040FCED00E00C0100405A
:100900001056004020C5004024040010E40E0040B2
:10091000000400400012001004E5014000E4014022
:100920000000FA0510B50648007F20B104490548CB
:1009300002F0A0FA03E00249024802F0FAF910BD01
:10094000640100200020004002E008C8121F08C116
:10095000002AFAD170477047002001E001C1121F40
:10096000002AFBD17047C1B281F311887047C1B230
:1009700081F311887047C1B281F311887047C1B209
:1009800081F31188704710B5002202212C2000F05D
:1009900037FD022211462C2000F032FD10BD10B5AB
:1009A00004466D2240F606012E2000F029FD3CB1E0
:1009B00040F2076241F606012E2000F0FCFC06E042
:1009C00041F2076241F606012E2000F0F4FC10BD52
:1009D00010B5002000F006F800220421362000F0B7
:1009E000EAFC10BD38B504466B46022200213620D1
:1009F00000F050FB0F2C5FD2DFE804F012081B5E02
:100A00005E5E5E24335E5E40474E570000208DF8E8
:100A100000009DF8010000F0FE008DF801004CE0A0
:100A20009DF8000000F0FC0040F001008DF800008F
:100A300043E09DF8000000F0FC0040F002008DF85B
:100A400000003AE09DF8000000F0B30040F04800DC
:100A50008DF800009DF8010040F080008DF8010045
:100A60002BE09DF8000000F0B3008DF800009DF829
:100A7000010000F07F008DF801001EE09DF80100EC
:100A800040F002008DF8010017E09DF8010000F031
:100A9000FD008DF8010010E09DF8000000F0CF008F
:100AA00040F020008DF8000007E001208DF80000E4
:100AB00003208DF8010000E000BF00BF6B4601225B
:100AC0000021362000F0A6FC0DF1010301221146A1
:100AD000362000F09FFC38BD10B50E20FFF782FFD6
:100AE0004FF4004206212D2000F065FC012000F0AB
:100AF0009DF80120FFF776FF10BD70B50446A2B245
:100B000004212D2000F057FC032206212D2000F0A7
:100B100077FC002206212D2000F072FC0A212D20F6
:100B200000F091FA0546284670BD000000BF13484A
:100B3000006800F0010000B100BE00BF00BF00BFB0
:100B400000BF00BF00BFBFF34F8F00BF00BF00BF9B
:100B50000A48E438006800F4E06009490843001DD1
:100B60000649E439086000BF00BF00BFBFF34F8FE4
:100B700000BF00BF00BF00BF00BFFDE7F0ED00E019
:100B80000000FA053EB50446002000900190029056
:100B900002946A46002144F20100FFF7C7FF3EBD00
:100BA00000B5024600F006F800BD00B5024600F0B0
:100BB0000BF800BD72B603480068401C014908608C
:100BC000704700005800002004480068401E034998
:100BD00008600846006800B962B6704758000020F7
:100BE0000146024850F8210070470000E80000204C
:100BF00001460148405670471801002070B505466F
:100C00000DB9094C01E0084C083409E0204600F019
:100C10000AFE064606B904E028467168884700BF08
:100C2000F4E700BF70BD00008C01002010B5044641
:100C3000204600F043FF10BD7047002070470000C1
:100C40002DE9F05F04464FF00009CA462578607927
:100C5000854931F810806078401EC6B2042D01D05D
:100C6000072D01D1012000E000208346E07950B932
:100C70007E480068406940F480007C49096848610A
:100C80004FEAE80807E079480068406920F48000EE
:100C9000764909684861207A74490968087273487E
:100CA0000068406920F440307049096848616F4825
:100CB00000684069217A4FF4403202EA014108435A
:100CC0006A4909684861694800680021426904204E
:100CD00000F082FB424642F604012E2000F06BFB3E
:100CE0003046FFF75CFE6248405D624951F82020C3
:100CF00007212B2000F070FB5D48405D5E490A5CD7
:100D00000B212B2000F07CFB5C4810F80B200B2102
:100D1000282000F075FB5648405D594951F82020C5
:100D20000C21282000F058FBE079564901EB8000A7
:100D3000A17930F811200221272000F03CFB524815
:100D400030F816200421272000F035FBE07928B97F
:100D500064220621272000F02EFB17E0A07804284B
:100D60000AD110220621272000F025FB102226217F
:100D7000272000F045FB09E020220621272000F073
:100D80001AFB28222621272000F03AFB3F4800EBDF
:100D90000610E17850F821200821272000F01CFBE4
:100DA000608910B941F241006081628920212720C9
:100DB00000F001FB36480C210268232000F00CFBF8
:100DC0003348001D30F816200421232000F0F3FAE8
:100DD000A07950B1E0792F490A5C0021212000F070
:100DE0000FFB4FF003094FF0010A05F00F00F0214F
:100DF00001EA0511084361784FF4402202EA81417B
:100E00000843910001EA095108434FF4003101EA17
:100E10004A41084321794FF0F86202EA81510843C0
:100E20006179520102EAC16140EA01073A460021B4
:100E30001F2000F0D1FAA078617808430004E1791E
:100E400040EA413009490968C86008480068002143
:100E5000C268082000F0C0FA422200210D2000F0F4
:100E6000CFFABDE8F09F00007C3F00005C0000204E
:100E7000003F0000203F0000383F00003E3F0000E0
:100E8000083F00004C3F0000583F00005C3F00005E
:100E9000403F0000483F000070B500210E2000F0E8
:100EA000D2F80546FFF7C9FE0446002211460E207F
:100EB00000F092FA402200210D2000F0A1FA0A4A27
:100EC00000210F2000F088FA00F062FA2A46002183
:100ED0000E2000F081FA2046FFF7AEFE0020034905
:100EE0000968887670BD0000F8FF27245C000020A8
:100EF0002DE9F041044600250027002046490968F5
:100F00004874454909688876434909680883424915
:100F10000968886240490968C8623F4909680863EE
:100F20003D490968486300F0AFF83C49884202D067
:100F30008817BDE8F08100F0C7F90020FFF752FDE7
:100F400004220021242000F05BFA1E20FFF7D5FDCB
:100F500085B2280A3049096848720420FFF7CDFDA0
:100F60000746F8B260B1022212212D2000F048FAA3
:100F700029480068008B40F480502749096808839D
:100F80000620FFF7BAFD2449096808600720FFF72B
:100F9000B4FD21490968486005F01F001E49096831
:100FA00008741D480068007C18B910201A490968A7
:100FB000087419490968087C00F07AF904F0010006
:100FC00050B1FFF789FD14480068008B40F40060C1
:100FD0001149096808830DE00521362000F020F84A
:100FE00006464FF6FF50064032460521362000F0F7
:100FF000E2F900BF0120FFF7F5FC00220A212C20B6
:1010000000F0FEF90021042000F01DF802490968F3
:10101000486100208DE700005C0000203001CADE3E
:10102000F8B504460D460026A9B2A0B26B460222CE
:1010300000F030F89DF800009DF8011000EB012051
:1010400086B23046F8BDF8B505460E460027B1B267
:10105000A8B26B46042200F01DF8032404E01DF83A
:10106000040000EB0727641E002CF8DA3846F8BDB0
:1010700038B504460D46A9B2A0B26B46012200F075
:1010800009F89DF8000038BD10B500210846FFF7AB
:10109000DAFF10BD2DE9F84306460C461746984680
:1010A00000252CB9F2B228466D1C0DF800201BE07B
:1010B000F0B240F0400228466D1C0DF800207F2C55
:1010C00005DCE2B228466D1C0DF800200CE0E0B211
:1010D00040F0800228466D1C0DF80020C4F3C712B2
:1010E00028466D1C0DF80020A8B243463A466946D2
:1010F00001F0F4FBBDE8F88370B504460D461646D2
:1011000023462A4631461120FFF7C4FF70BD10B5B3
:1011100004462346052200211520FFF7BBFF10BD22
:1011200070B5044604F0040008B900F031F94FF43A
:10113000807504F0010008B145F400752A460021CD
:101140000D2000F038F904F00100A8B103210F20B0
:10115000FFF78EFF064606F0080068B1FFF79CFE19
:1011600004F0020028B94FF4807200210D2000F035
:1011700022F94FF0FF3070BD0020FCE710B5E022EF
:101180000321362000F03CF9F0220321362000F044
:1011900037F910BD10B50446224601210A2000F09F
:1011A0001BF910BD70B5054605F0010080B30021A4
:1011B0002620FFF748FF044624F4705444F4A0545A
:1011C00022460021262000F007F900213620FFF7F3
:1011D0003AFF044644F4040422460021362000F07D
:1011E000FBF84FF4887405F0020008B144F4702451
:1011F00022462821362000F0EFF805F00200A0B1C9
:1012000024F4702422462821362000F0E5F80CE072
:10121000FFE700212620FFF716FF044624F4705450
:1012200022460021262000F0D7F870BD10B50446F4
:10123000224641F604012E2000F0BDF810BD00004A
:1012400070B5044603210420FFF712FF0546002C69
:1012500014DD224600210C2000F0ADF845F0100509
:101260000E480068406940F080500C4909684861A8
:101270002A460321042000F0C3F80EE025F01005F3
:1012800006480068406920F08050044909684861B8
:101290002A460321042000F0B3F870BD5C00002052
:1012A00010B5044622460021182000F084F810BD35
:1012B00070B5044604F01F0040F060052A460E2178
:1012C0002B2000F09DF870BD10B5FFF781FB0022C8
:1012D00011462C2000F06FF8002206212C2000F08F
:1012E0008FF8FFF750FB00220321362000F088F82A
:1012F0000120FFF79BFCF0220321362000F080F84C
:10130000002002490968887610BD00005C000020BA
:101310002DE9F041044600260025002704F00200D4
:1013200048B180252A4600210D2000F069F80120EF
:1013300016490968887604F00100E0B145F0060519
:101340002A4600210D2000F05BF803210F20FFF753
:1013500067FE074607F4816008B9002612E04025C1
:101360002A4600210D2000F04BF8002007490968AB
:101370008876461E06E045F002052A4600210D202B
:1013800000F03EF83046BDE8F08100005C0000202F
:1013900010B503210F20FFF76BFE044604F0800018
:1013A00004F04001B0EB410F04D0012203210D20D5
:1013B00000F026F810BDF8B505460E461446E0B21A
:1013C0008DF8000020128DF80100B1B2A8B26B4672
:1013D000022200F01FF8F8BDF8B506460F46144685
:1013E000002504E0E0B20DF80500240A6D1C042D70
:1013F000F8DBB9B2B0B26B46042200F00BF8F8BDCE
:1014000037B504460D46A9B2A0B202AB012200F0E6
:1014100001F83EBD2DE9F84306460C4617469846AE
:1014200000253CB9F0B240F0800228466D1C0DF852
:1014300000201BE0F0B240F0C00228466D1C0DF801
:1014400000207F2C05DCE2B228466D1C0DF8002040
:101450000CE0E0B240F0800228466D1C0DF8002040
:10146000C4F3C71228466D1C0DF80020A8B24346ED
:101470003A46694601F0B4FFBDE8F88370B504460A
:101480000E4615462819B0F5806F07DCA21E3346BC
:1014900029460920FFF7BEFF002070BD4FF0FF3046
:1014A000FBE700002DE9F04104460D4616460748CB
:1014B0000068C068204340EA855040EAC6373A4693
:1014C00000210820FFF788FFBDE8F0815C000020C4
:1014D00013480078062820D11148001D007800F03C
:1014E0000F00D0B90E480830007800F0F000302826
:1014F00001D1012070470A480830007800F0F00060
:10150000402801D10120F5E705480830007800F0B7
:10151000F000502801D10120ECE70020EAE70000AC
:10152000E00F00F013480078062820D11148001D74
:10153000007800F00F00D0B90E480830007800F0B5
:10154000F000302801D1012070470A4808300078A7
:1015500000F0F000402801D10120F5E705480830EF
:10156000007800F0F000502801D10120ECE70020C5
:10157000EAE70000E00F00F013480078062820D1C9
:101580001148001D007800F00F00D0B90E48083057
:10159000007800F0F000302801D1012070470A489F
:1015A0000830007800F0F000402801D10120F5E774
:1015B00005480830007800F0F000502801D10120E3
:1015C000ECE70020EAE70000E00F00F00A480078AE
:1015D00006280ED10848001D007800F00F0040B921
:1015E00005480830007800F0F000302801D10120D3
:1015F00070470020FCE70000E00F00F0134800787F
:10160000062820D11148001D007800F00F00D0B945
:101610000E480830007800F0F000302801D1012099
:1016200070470A480830007800F0F000402801D1E7
:101630000120F5E705480830007800F0F000502858
:1016400001D10120ECE70020EAE70000E00F00F004
:101650000A48007806280ED10848001D007800F0DE
:101660000F0040B905480830007800F0F00030283D
:1016700001D1012070470020FCE70000E00F00F0DE
:1016800013480078062820D11148001D007800F08A
:101690000F00D0B90E480830007800F0F000302874
:1016A00001D1012070470A480830007800F0F000AE
:1016B000402801D10120F5E705480830007800F006
:1016C000F000502801D10120ECE70020EAE70000FB
:1016D000E00F00F00A48007806280ED10848001DE7
:1016E000007800F00F0040B905480830007800F09D
:1016F000F000302801D1012070470020FCE70000F5
:10170000E00F00F00A48007806280ED10848001DB6
:10171000007800F00F0040B905480830007800F06C
:10172000F000302801D1012070470020FCE70000C4
:10173000E00F00F00A48007806280ED10848001D86
:10174000007800F00F0040B905480830007800F03C
:10175000F000502801D1012070470020FCE7000074
:10176000E00F00F010B50446A07FFF2802D0A07F54
:1017700000F0FEFB00206077207204F10800D4E93D
:101780000021904710BD000010B5002821D0114B5A
:101790000022001F196803E0814203D80A46496805
:1017A0000029F9D152B11368841A9C4204D100680F
:1017B00018441060104602E0506000E0186039B133
:1017C00002680B1A934203D10B681A4402604968FD
:1017D000416010BDC80000207CB500210C460D46BC
:1017E0006846FFF794FC042607E0280240EA1465E7
:1017F00024021DF806000443761E002EF5DA20466A
:1018000029467CBD70B505460C464FF484712846C8
:1018100000F0F0FB2146284601F020FA10B92046DE
:10182000FFF7A0FF70BD0146086808B102680A60B2
:101830007047026803E08A4200D170471268002AAC
:10184000F9D103680BB1036800E000230B6001606D
:1018500000BFF2E70FE000BF0749086809078143AE
:10186000054A121D116000F08041121D116000BF79
:101870000A2001F075FCEEE704050050014600BFA8
:10188000064A106852078243044B1B1D1A6000F081
:1018900000421B1D1A6000BF704700000405005085
:1018A00010B54FF4827000F0EFF8022000F0FCF861
:1018B000082000F0FFF810BD1FB500BF002411E0A4
:1018C0000120A04000F0404058B100BF002000902F
:1018D0000346012211460190204600F0DDFA00BFC8
:1018E00000BF641C202CEBD300BF00BF4FF0404072
:1018F000314908600020091F086000BF2F4A0223F9
:10190000CDE901200093039003464FF482722CA18D
:101910002D4802F03BF82D48002301224FF4FA61D4
:1019200000902BA002F050FA2B49086002F0D0F88A
:101930000446002003462246012100902648006804
:1019400002F084FA0020254A0223CDE90120009309
:10195000039003464FF4827221A1244802F016F846
:1019600013240025002000902B46024601460190DA
:10197000204600F091FA00BF00F0FAFF00F0AAFB49
:101980000120FFF7B5FA401C08B900BFFEE700F0E0
:101990007DFB1748FFF754F944F24800FFF746FC77
:1019A00044F24800FFF77CFC0020FFF749FC01F0FF
:1019B000A1FC00BFFEE700000C0500501400002051
:1019C0004C45443000000000551800007D18000010
:1019D0004C45443100000000180000201000002099
:1019E00053535457525F524553500000492C000046
:1019F00002000020F0B50B30154D20F00701002447
:101A0000144A0FE003688B420BD38B4205D95E1A50
:101A100043184768C3E9006700E04368136002C0E9
:101A200004E0021D10680028ECD12046002802D1F5
:101A3000286808B10020F0BD064A07481060074A30
:101A4000121A22F00702C0E9002401202860D7E71B
:101A5000CC000020C8000020AC120020A8320020DA
:101A600030B502460B46D40802F007020120904030
:101A70001D5D284030BD01464FF08040405808B100
:101A8000012070470020FCE708B500224FF080419C
:101A90000A500958009100BF08BD000001490860C4
:101AA00070470000080300400149086070470000CB
:101AB00004030040012291070A50704710B5044604
:101AC0004FF47A7104FB01F000F002F810BD000041
:101AD00000B9704700BF00BF00BF00BF00BF00BF1C
:101AE00000BF00BF00BF1F4909681F4A914200D1D3
:101AF00030E000BF00BF00BF00BF00BF00BF00BF9D
:101B000000BF00BF00BF00BF00BF00BF00BF00BFDD
:101B100000BF00BF00BF00BF00BF00BF00BF00BFCD
:101B200000BF00BF00BF00BF00BF00BF00BF00BFBD
:101B300000BF00BF00BF00BF00BF00BF00BF00BFAD
:101B400000BF00BF00BF00BF00BF00BF00BF00BF9D
:101B500000BF00BF01460139084600D0BBE700BF07
:101B6000B7E70000C40000200024F40010B50446CC
:101B70001448807878B114B101206168884700204A
:101B8000FFF70EF80F48C068401C0E49C8600020DF
:101B9000FFF70BF815E00020FFF702F824B121460B
:101BA00008481030FFF745FE0648C06808B9FFF73F
:101BB00077FE0448C068401C0249C8600020FEF758
:101BC000F4FF10BD8401002070B50B4601461A4693
:101BD000002907DA5407260E104C01F00F052D1FBF
:101BE000665503E05407250E0D4C655400BF00BF39
:101BF00000F01F02012191400A4A440942F82410D2
:101C000000BF00BF00F01F02012191404209920075
:101C100002F1E022C2F8001100BF70BD18ED00E033
:101C200000E400E080E200E02DE9FF4F83B0804651
:101C30000C46934698F8050000EBC000524901EBB2
:101C40008006307F28B14FF0080A504607B0BDE843
:101C5000F08FC6F800B006987060207B012803DC86
:101C6000207800F07AF902E0207800F081F9002075
:101C700000900190207800231A46012100F020F9FD
:101C80006078FF2808D094F80190484600F065F984
:101C9000484600F03DF901E04FF0FF39A078FF28F9
:101CA0000CD0A7780125002000902B460246014663
:101CB0000190384600F004F900BF01E04FF0FF3713
:101CC000E078FF2805D0E07800F052F9E07800F0E5
:101CD0001FF9E07898F8051001EBC1012A4A02EBE0
:101CE00081018877D8F8005028462178C0F8081577
:101CF000C0F80C954FF4A262175000BFA068C5F859
:101D0000240500BF217B627B0AB1012300E0002390
:101D1000184631B1012906D0022907D0032908D07D
:101D200000BF00BF08E040F0020005E040F0040002
:101D300002E040F0060000BF00BFC5F8540500BF38
:101D4000607998F8051001EBC1010F4A02EB81019F
:101D5000C877306818B10421284600F055F900BF53
:101D60000120C5F8000500BF306820B1217998F93D
:101D70000400FFF729FF00207077012030774FF033
:101D8000000A504662E70000400100202DE9FF41B3
:101D900007460C4615461E46DDF82880009402963C
:101DA0008DF804508DF80C8000226946384600F00A
:101DB0002FF804B0BDE8F08170B50446607900EBFF
:101DC000C000114901EB8005286868B194F904004E
:101DD00000BF00F01F02012191400C4A430942F864
:101DE000231000BF00BF00BF2668286820B14FF055
:101DF000FF31304600F005F900BF0020C6F80005AD
:101E000000BF287770BD00004001002080E100E0A5
:101E10002DE9F04105460E461746687900EBC000F3
:101E20001C4901EB80044FF00008607F20B14FF0A7
:101E300011084046BDE8F081206820B107F0140089
:101E400008B90120607796E80E10C4E9053CC4E9A2
:101E500003121E34E07820F00100E070E07820F0FA
:101E60000200E070E07820F00400E07014F81E0931
:101E7000FF2802D0A07F00F070F827B10020607723
:101E80004FF0060804E032462146286800F0E4FDE1
:101E90004046CFE740010020F0B5DDE9054500BF31
:101EA0004FF0A0473E4641EA420747EA830747EA28
:101EB000042747EA054C06F5E06747F820C0F0BD67
:101EC000F0B5DDE9054500BF4FF0A0473E4641EAC9
:101ED000420747EA830747EA042747EA054C06F525
:101EE000E06747F820C0F0BDF0B5DDE9054500BF6B
:101EF0004FF0A0473E4641EA420747EA830747EAD8
:101F0000042747EA054C06F5E06747F820C0F0BD16
:101F10001CB50446002000900346012211460190A2
:101F20002046FFF7CDFF1CBD10B50A4600BF4FF09D
:101F3000A043194601F5E06353F8203023F4403400
:101F400001F5E06343F8204053F8203043EA0244AF
:101F500001F5E06343F8204010BD00BF4FF0A04101
:101F60000A46012303FA00F1C2F80C1500BF7047BE
:101F700000BF4FF0A0410A46012303FA00F1C2F866
:101F8000081500BF7047000038B50B46074C2468A1
:101F90000094014606E05DF82140D4F81055156024
:101FA000121D491CC4188C42F5D838BDB83E00003B
:101FB00001460148084470470060004038B50446B7
:101FC0002046FFF7F5FF002101602046FFF7F0FFF4
:101FD0000068009000BF38BD10B504462046FFF7EA
:101FE000E7FF0068012800D110BD0020FCE70122B6
:101FF0004250704708B5002242504258009200BF3C
:1020000008BDC0F808137047C0F804137047C0F843
:102010001C1570470146D1F88004C1F88004704750
:102020000246505808B1012070470020FCE708B56F
:10203000002242504258009200BF08BDC0F8081369
:1020400070470246D2F80403084008B101207047E7
:102050000020FCE70122425070470146D1F880047D
:10206000C1F8800470470246505808B101207047FB
:102070000020FCE708B5002242504258009200BF01
:1020800008BD014640F23C50405870471FB50E480D
:10209000FFF792FE0D4B0FCB8DE80F0011208DF84E
:1020A000030000BF00230A4A69460748FFF7BCFD4A
:1020B000044624B100BF2046FEF764FD00BF00BF08
:1020C0000220FFF7FBFC1FBDE03F0000F83F0000CF
:1020D0004D2A00001FB50D4B0FCB8DE80F001120CE
:1020E0008DF8030000BF0023094A69460948FFF73D
:1020F0009BFD044624B100BF2046FEF743FD00BF10
:1021000000BF0220FFF7DAFC1FBD0000E83F00001F
:102110004D2A0000E03F000010B504460E4800685C
:1021200044600E480068844207D20B480168091DCC
:102130000B48006800F052FF0CE007480168091DD9
:102140000848006800F04AFF07480068844201D24E
:102150000548046010BD00006800002080000020D9
:10216000700000206C0000209C0000202DE9F04150
:1021700005460F461FB9A80000F04EFB00E03846A8
:10218000064656B1482000F047FB04460CB12663D2
:1021900004E0304600F06EFF00E0002424B1A90006
:1021A000A522206BFEF7B8F82046BDE8F0810000BC
:1021B00010B500F043FF10480068D0B90F4800F098
:1021C000FDFE0F4800F0FAFE0C480E4908600C486E
:1021D0000D49086000221021202001F07DF90649F8
:1021E00008600846006820B108A10348006800F0B4
:1021F00083FF00F02FFF10BDAC0000208002002004
:1022000094020020A4000020A8000020546D725108
:102210000000000070B523E001F09AF81348006850
:1022200008B9012000E00020054601F04BFDBDB9D2
:1022300000F004FF0D48C068C468201D00F0AAFE2D
:102240000B480068401E0A4908600A480068401EA2
:102250000849086000F0FEFE204600F062F800BF6A
:10226000044800680028D7D170BD00005802002043
:102270007C0000207400002070B504460D46206CE0
:1022800070B1216CE0680844E0606168E0688842F1
:1022900001D32068E0602846226CE168FEF72AF846
:1022A00070BD2DE9F04104460E4615460027206C0E
:1022B00040B9206878BB606801F094FC07460020B4
:1022C000606028E07DB93146226CA068FEF712F804
:1022D000216CA0680844A060D4E9011088421AD398
:1022E0002068A06017E03146226CE068FEF702F833
:1022F000216CE068401AE0602168E068884203D2FF
:10230000216C6068401AE060022D04D1A06B10B10E
:10231000A06B401EA063A06B401CA0633846BDE8C4
:10232000F08110B50446206B00F0A4FE204600F0BA
:10233000A1FE10BD0146084A126812680AB90122BE
:1023400000E000220A600A6822B9034A1268D268D3
:10235000106800E000207047A400002000BFFFF7D5
:1023600059FF0D4800680128F9D900BF4FF080508F
:102370000A49086040BF00BF00BF00BFBFF34F8FD6
:1023800000BF00BF00BF00BF00BF00BFBFF36F8F23
:1023900000BF00BF00BFE2E7E001002004ED00E065
:1023A0002DE9F04704460F4615469946DDF8208092
:1023B000002607E0B95D04F134008155B85D00B92D
:1023C00002E0761C042EF5D300BF00213720015512
:1023D000032D00D30225E562A5630020E063201DE4
:1023E00000F0F9FD04F1180000F0F5FD2461C5F1DD
:1023F0000300A06164620020206484F84400BDE80A
:10240000F087000010B5002407E004EB84010F4AB8
:1024100002EB810000F0D2FD641C032CF5D30C48C4
:1024200000F0CCFD0B4800F0C9FD0B4800F0C6FDE4
:102430000A4800F0C3FD0A4800F0C0FD04480949FD
:10244000086004480849086010BD0000E001002051
:102450001C0200203002002044020020580200200C
:102460006C0200206C000020700000202DE9F0417B
:1024700004460D4616461F464FF00008656024616D
:10248000B5420CD8F01BA169884202D34FF0010875
:1024900011E0211D0948006800F0A0FD0BE0BE42DC
:1024A00004D2BD4202D34FF0010804E0211D0448CC
:1024B000006800F093FD4046BDE8F081A8000020D0
:1024C000A400002070B5054600F0B8FDA86B08B95F
:1024D000012400E0002400F0BDFD204670BD70B571
:1024E000054600F0ABFDA86BE96B884201D10124E1
:1024F00000E0002400F0AEFD204670BDF8B50546B2
:102500000E4610480068C068C468201D00F042FDF7
:10251000E069012812D1A06941192B4632462046B4
:10252000FFF7A4FF012809D1002003462A460146EF
:102530000090204601F08AFC074600BF2046616AF1
:102540008847F8BDA4000020F0B587B057E0039895
:10255000002805DA04AED6E90020B168904700BF34
:10256000039800284BDB059C606908B9012000E056
:10257000002010B9201D00F00DFD02A800F0A2F807
:10258000054603980A2838D2DFE800F00905072637
:1025900028330608272900BF00BF00BF00BF0498EA
:1025A000A269811803462A462046FFF75FFF0128EB
:1025B00011D12046616A8847E06901280BD10020CB
:1025C00000900498A169421800231946204601F0A2
:1025D0003DFC074600BF11E000BF0FE000BF0498BC
:1025E000A061A06941192B462A462046FFF73EFF0D
:1025F00004E0204600F03EFD00E000BF00BF0023E5
:102600001A4603A90348006800F08CFF00289ED1F9
:1026100007B0F0BDAC000020F8B504460E4600F04F
:1026200097FE684600F04EF80546009840BB46B954
:10263000AC4206D801F046FB29462046FFF75EFF74
:1026400020E0611B1048006800F06CFD01F03AFBCF
:10265000C0B900BF4FF080500C49086040BF00BFB8
:1026600000BF00BFBFF34F8F00BF00BF00BF00BF60
:1026700000BF00BFBFF36F8F00BF00BF00BF01E00E
:1026800001F020FBF8BD0000AC00002004ED00E0EC
:102690000A490968096809B9012100E0002121B14E
:1026A0004FF0FF31064A116006E004490968C96825
:1026B000C868034A41681160704700006C00002040
:1026C0009C00002070B5044601F002FA0546074858
:1026D0000068854204D200F00BF80120206001E080
:1026E0000020206001480560284670BDB40000202D
:1026F0002DE9F84326E01D480068C06805681B48BE
:102700000068C068C468201D00F044FC2046616A6F
:102710008847E069012815D1A0694619AE4207D95A
:1027200066602461211D1148006800F057FC09E033
:10273000002003462A4601460090204601F086FB11
:10274000804600BF09480068006808B9012000E021
:1027500000200028CFD005480768054800680349D5
:10276000086003480760BDE8F8830000A40000206B
:10277000A80000204020FEF7FEF800BFFEE708B5E5
:1027800000BF6846FFF7D6FD044620460099FFF7D4
:1027900043FFFFF7D9FEF4E710B5044600F04EFC06
:1027A00011E0606A08B9012000E0002038B904F1A6
:1027B000240001F047FA18B100F006FD00E005E042
:1027C000A06C401EA064A06C0028EADC00BF4FF0A3
:1027D000FF30A06400F03EFC00F030FC11E0206906
:1027E00008B9012000E0002050B904F1100001F008
:1027F00029FA08B100F0E8FC606C401E606400E05B
:1028000002E0606C0028EADC00BF4FF0FF3060643B
:1028100000F020FC10BD000070B50446002504F057
:10282000070020B104F00700C0F10800044400F0E4
:102830008FFD1248006820B9114820F007000F49A9
:10284000086010480068204440F6F871884210D2B1
:102850000C48006820440B490968884209D9074898
:102860000068084909684518064800682044054979
:10287000086001F027FA284670BD0000BC00002067
:10288000B0020020B80000200648006830B10549B9
:10289000096801F13C00C96B491C016001480068EE
:1028A000704700006800002008B5001F0023009357
:1028B000084B1B680093009B0360001F0160001F12
:1028C000054B036014380260001F6FF002030360C1
:1028D000203808BD08400000752700002DE9FF4F93
:1028E00081B004469146002504EB09052F46384681
:1028F000FFF780F80646AA465046FFF77BF8804669
:1029000029463046FDF70FFD29464046FDF70BFDF1
:10291000B346224658460299FDF7ECFCA3444946CB
:102920005846FDF700FD00200F490870E8B2EAB2F2
:102930004346314600900D48FFF728FA00BF0A4889
:1029400000780028FBD008EB040B4A46594604984F
:10295000FDF7D0FC4046FEF717FF3046FEF714FFA8
:10296000002005B0BDE8F08F60000020E03F0000CF
:102970007CB51824002000900346012211460190E6
:102980002046FFF7B1FA00BF182000BF4FF0A0416A
:102990000A46012303FA00F1C2F80C1500BF00BF7C
:1029A0000220FFF78BF80025002000902B460246FE
:1029B000014601902046FFF797FA00BF0220FFF77B
:1029C0007DF87CBD2DE9F0478146174698460024E6
:1029D00009E0E2003D46464628463146FDF77AFCCE
:1029E00009F80400641C042CF3DBBDE8F08770B523
:1029F00005460C46E07D40B94FF484712846FFF748
:102A000016FB00BFD5F8180570BD4FF48471284639
:102A1000FFF70DFB00BFD5F81805C0B2627EE16874
:102A20008854607E401C607600BFEDE77FB50446A9
:102A30000D46164601208DF800008DF808500196CD
:102A40006846D4E9001290477FBD00000122014B87
:102A50001A7070476000002070B506460C46154697
:102A6000002084F8200004213046FFF7CAFA4FF412
:102A700084713046FFF7BEFA2879002802DD286805
:102A8000007800E0E07F01463046FFF7C0FA287981
:102A9000012805DD286841783046FFF7B8FA06E0DE
:102AA000287B012803DDE17F3046FFF7B0FA20687C
:102AB00020B104213046FFF7A7FA1CE000BF00BF99
:102AC00030464FF4847142580AB1012200E00022DE
:102AD000002AF5D04FF484713046FFF78BFA214677
:102AE000304600F0BBF80028E9D1A07FFF2802D0D3
:102AF000A07FFFF73DFA70BD70B50020FEF710FB18
:102B000000BF00210F20FEF79EFA454908604549A5
:102B100008400028F5D04248008800F48040002892
:102B200074D04FF4804200210F20FEF755FC0021A5
:102B30001020FEF788FAC0F30904B4F5806F04D8BA
:102B4000A1B200223848FEF7D7FA00203649887033
:102B50000A2236493448FDF7F1FB002855D1FEF72B
:102B60003BFE334A03C23248D0E90030314A9A185A
:102B700040F10000010641EA12252846FEF70AFB53
:102B800025F001000021090241EA1061030244F22C
:102B900048029A1841F100012748C0E90021244861
:102BA0000CC82648FFF70EFF23480CC82348001D19
:102BB000FFF708FF2248007820490A398870002270
:102BC0001420FEF75BFC012200211420FEF76AFCB2
:102BD0000120FEF79DFB0646A6B900BF00210F208D
:102BE000FEF731FA00F080000028F7D080220021A3
:102BF0000F20FEF7F1FB12480078401C10490870C6
:102C000002E003E0FEF7BAFA00BF06E00D4A002139
:102C10000F20FEF7E1FBFEF7B1FA012070BD0000C6
:102C20004400002000D02724D000002021000020F4
:102C30004800002000004C04500000203700002015
:102C400041000020009005240120FEF7ABFA04E0CB
:102C5000FFF752FF502000F083FAF9E7F8B5064677
:102C60000C4600BFD6F81805C0B2009094F82010AA
:102C7000207E814205DA9DF8001094F820206069DA
:102C8000815414F8200F401C20702078451C607877
:102C9000203CC0F3800038B1207CA84200DD2574C0
:102CA000207EA84200DD2576207CA84206DDE06873
:102CB000415D3046FFF7ABF90120F8BD207EA84208
:102CC00005DDE17F3046FFF7A2F90120F5E794F832
:102CD0002010207C814204DB94F82010207E814269
:102CE00001DA0120E9E70020E7E770B505460C4668
:102CF0004FF48E712846FFF79AF9A18AA068465CC6
:102D0000A08A401CA0823046C5F81C0500BF70BDDB
:102D10007FB504460D4600208DF800008DF8085060
:102D2000A06801900020A0756846D4E90012904781
:102D30007FBD2DE9FF4105460C464FF40071284642
:102D4000FFF77FF948B34FF492712846FFF768F90F
:102D500018B34FF492712846FFF769F94FF40171E7
:102D60002846FFF76BF9A07E18B904212846FFF723
:102D700071F902208DF800002846FFF74BF9039007
:102D8000E17D8DF80810E06801900020E075207664
:102D90006846D4E90012904736E004212846FFF740
:102DA00050F9002830D04FF484712846FFF738F9E5
:102DB00050B321462846FFF71AFEE07D617E884227
:102DC00022D1207E70B1E668677E207EE0752069A2
:102DD000E060002020766076324639462046FFF7D4
:102DE00025FE11E0A07E18B904212846FFF732F92C
:102DF0004FF401712846FFF721F90020E075617E4C
:102E0000E2682046FFF712FE4FF48E712846FFF766
:102E100007F998B1A08AA17D884204DA21462846A4
:102E2000FFF763FF0AE04FF48E712846FFF7FFF8C3
:102E3000A07D18B1A17D2046FFF76AFF4FF4A27173
:102E40002846FFF7EDF898B14FF4A2712846FFF736
:102E5000EEF8A07E18B100212846FFF7FBF8E07DD0
:102E600030B10020E075617EE2682046FFF7DEFDAC
:102E7000BDE8FF812DE9FF4105460C464FF49271F4
:102E80002846FFF7F0F8D8B14FF492712846FFF7C3
:102E9000F1F802208DF800002846FFF7DEF80390D5
:102EA0002846FFF7EEF8C1B28DF80810E0680190EF
:102EB0000020E07520766846D4E9001290472FE0A4
:102EC0004FF488712846FFF7CEF848B34FF4887165
:102ED0002846FFF7CFF82846FFF7D3F8C6B2E07DC3
:102EE000B0421CD1207E98B1E7682020D5F80012AE
:102EF0008143C5F8001200BF207EE0752069E060C4
:102F0000002020763A4631462046FFF78FFD06E046
:102F10000020E07531462046E268FFF787FD00BFDC
:102F20004FF4A2712846FFF79EF888B14FF4A271C2
:102F30002846FFF79FF8E07D50B10020E075284655
:102F4000FFF79FF8C6B231462046E268FFF76EFDF4
:102F50004FF490712846FFF786F878B14FF49071DE
:102F60002846FFF787F8A07D40B100BF40F24C50E3
:102F70004059C6B231462046FFF7CAFEBDE8FF8180
:102F800010B500BFEFF3118004464020FDF7EBFCC5
:102F9000204610BD01460A69D1E901309860D1E9A7
:102FA000010358605068884201D188685060002051
:102FB00008611068401E10601068704700F1080139
:102FC00041604FF0FF31816000F10801C160016193
:102FD00000210160704700210161704710B5024671
:102FE0000B685C1C0CB9106907E002F1080000E0F6
:102FF0004068446824689C42FAD944684C604C6834
:10300000A160886041600A611468641C146010BD8E
:1030100042684A6093688B60936859609160086168
:1030200003685B1C036070470348006840F470004D
:10303000014908607047000088ED00E010B54020AD
:10304000FDF799FC02480068401C0149086010BD6A
:10305000C000002010B506480068401E0449086002
:103060000846006810B90020FDF785FC10BD00007F
:10307000C00000207047000010B50020FEF776FD6C
:103080001F201849086000BF01201749C1F8040338
:1030900000BF08211448FEF7AAFF00211248FEF7DE
:1030A000A6FF02201149086000BF11200F2100284F
:1030B00007DA4A07140E0E4A00F00F031B1FD45400
:1030C00003E04A07130E0B4A135400BF11200121DD
:1030D00081404209920002F1E022C2F8001100BFD3
:1030E00010BD0000081501400010014044130140CC
:1030F00018ED00E000E400E0024600200BE0084B81
:1031000053F8303033B9064B43F8301003EBC003AB
:103110005A6002E0401C0228F1D300BF7047000053
:10312000D001002070B505460E462C46FFF786FFFD
:10313000606C401C08B900206064A06C401C08B999
:103140000020A064FFF786FFA06B20B9314604F190
:10315000240000F063F82046FFF71EFB70BD00005E
:1031600070B5044600267CB100F0F2F81348006800
:10317000051913480068001DFFF70CFF2846FEF7ED
:10318000CBFF00F09FFD0646B6B900BF4FF0805060
:103190000C49086040BF00BF00BF00BFBFF34F8FA6
:1031A00000BF00BF00BF00BF00BF00BFBFF36F8FF5
:1031B00000BF00BF00BF00BF70BD00008000002046
:1031C0006800002004ED00E001200149086070471C
:1031D0009000002070B506460C460D480168183175
:1031E0003046FFF7FBFE0A480068001DFFF7D2FEDD
:1031F000601C30B906480168091D0648FFF708FF42
:1032000005E00548006805192846FEF785FF70BDF2
:10321000680000206C0200208000002070B5054688
:103220000C460948016818312846FFF7F1FE0648A8
:103230000068001DFFF7AEFE04480068061930461E
:10324000FEF76AFF70BD00006800002080000020CB
:1032500070B505462C46002D39D01D49E06A096835
:10326000C96A884233D2A06900F0004028B91848E2
:103270000068C06AC0F10300A061E16A01EB81014E
:10328000144A02EB81016069884201D1012000E00B
:103290000020C0B1201DFFF77DFE0D480068C06A08
:1032A000E0620D49E06A0968884202D90A49E06A89
:1032B0000860E16A01EB8101064A02EB8100211DF1
:1032C000FFF7A6FE03E002480068C06AE06270BD36
:1032D00068000020E0010020840000200349096804
:1032E00001600349096841607047000094000020B4
:1032F000800000201FB500200F4ACDE90002029097
:1033000003463C220DA103900E4800F03FFB04460B
:10331000012C02D100F078FD0446012C0AD1402096
:10332000FDF725FB012008490860002007490860D7
:1033300000F09EF81FBD00007800002049444C4575
:10334000000000005D2300008800002080000020B5
:1033500002480068401C014908607047A000002036
:103360001A48006818B10120194908602CE00020B3
:103370001749086004E017480068401E15490860B6
:103380001448006800EB8000134951F8200008B988
:10339000012000E000200028EDD10E49096801EB72
:1033A00081010D4A02EB810041684968416000F1EA
:1033B000080142688A4202D1416849684160416817
:1033C000C968064A116000BF70470000A0000020D5
:1033D0009000002084000020E00100206800002010
:1033E0002DE9FF4F83B0064692469B46002406EB2C
:1033F0000A0427463846FEF7FDFA0546A046404631
:10340000FEF7F8FA814621462846FCF78CFF214654
:103410004846FCF788FF0295324604990298FCF76B
:1034200069FF029DA8190290524659460298FCF77E
:1034300061FF00200C490870E0B2E2B24B46294619
:1034400000900A48FEF7A2FC00BF07480078002859
:10345000FBD04846FEF798F92846FEF795F900207C
:1034600007B0BDE8F08F000060000020E03F0000E2
:103470006FF001000F21002807DA4A07140E124AE4
:1034800000F00F031B1FD45403E04A07130E0F4A2A
:10349000135400BFFFF7F0FD00200D490860FFF74F
:1034A000C3FD0C48006840F040400A4908600648E7
:1034B0000838006840F01000034908390860FCF73C
:1034C000BBFEFFF757F9000018ED00E000E400E054
:1034D000C000002034EF00E02DE9F04707460D461C
:1034E00092464FF000090DB9C84603E007FB05F00E
:1034F00000F1010808F14C00FFF78EF906466EB1A5
:1035000034460DB9246002E006F14C002060E76308
:1035100025640121204600F0D5F8A1464846BDE8C3
:10352000F08700002DE9FF4383B0054688461E461C
:103530004FF000092C4600BFFFF780FDA06B00286C
:1035400059D0E76841462046FEF796FE56BBA06B71
:10355000401EA063206810B9FFF796F960602069EB
:1035600008B9012000E0002000283ED104F110003D
:1035700000F068FB012838D100BF000750490860FF
:1035800040BF00BF00BF00BFBFF34F8F00BF00BFF1
:1035900000BF00BF00BF00BFBFF36F8F00BF00BF01
:1035A00000BF22E0E760606A08B9012000E0002067
:1035B000D8B904F1240000F045FBB0B100BF4FF0D2
:1035C00080503F49086040BF00BF00BF00BFBFF34D
:1035D0004F8F00BF00BF00BF00BF00BF00BFBFF3E1
:1035E0006F8F00BF00BF00BF00BFFFF733FD01209A
:1035F00007B0BDE8F083059818B9FFF72BFD002050
:10360000F6E7B9F1000F04D101A8FFF767FE4FF00C
:103610000109FFF71FFDFFF79BFEFFF70FFD606C31
:10362000401C08B900206064A06C401C08B9002050
:10363000A064FFF70FFD05A901A800F079F980BB90
:103640002046FEF73FFF68B3206830B9FFF7F6FC6D
:103650006068FFF7FDFDFFF7FDFC04F1240005990C
:10366000FFF7B8FD2046FFF797F800F02BFB002886
:103670007FF462AF00BF4FF080501149086040BF37
:1036800000BF00BF00BFBFF34F8F00BF00BF00BF30
:1036900000BF00BF00BFBFF36F8F00BF00BF00BF00
:1036A0004AE706E0FFE72046FFF776F800F00AFB5E
:1036B00042E72046FFF770F800F004FB002097E790
:1036C00004ED00E070B505460E462C46FFF7B6FC4B
:1036D000D4E90F12206801FB020060600020A063A3
:1036E0002068A060E06B401E226C216800FB021085
:1036F000E0604FF0FF306064A0640EBB206908B941
:10370000012000E0002018BB04F1100000F09AFA3C
:1037100001281DD100BF00070F49086040BF00BF4E
:1037200000BF00BFBFF34F8F00BF00BF00BF00BF8F
:1037300000BF00BFBFF36F8F00BF00BF00BF07E037
:1037400004F11000FFF73AFC04F12400FFF736FC07
:10375000FFF780FC012070BD04ED00E02DE9FF4380
:1037600083B0074688461D464FF000093C4600BF1F
:10377000FFF764FCA06BE16B884201D3022D45D1B9
:103780002A4641462046FEF78CFD0646606A08B987
:10379000012000E00020D8B904F1240000F052FA22
:1037A00001282DD100BF00074549086040BF00BF78
:1037B00000BF00BFBFF34F8F00BF00BF00BF00BFFF
:1037C00000BF00BFBFF36F8F00BF00BF00BF17E097
:1037D000B6B100BF4FF080503949086040BF00BF0C
:1037E00000BF00BFBFF34F8F00BF00BF00BF00BFCF
:1037F00000BF00BFBFF36F8F00BF00BF00BF00BF9F
:10380000FFF728FC012007B0BDE8F083059818B940
:10381000FFF720FC0020F6E7B9F1000F04D101A862
:10382000FFF75CFD4FF00109FFF714FCFFF790FD77
:10383000FFF704FC606C401C08B900206064A06CB9
:10384000401C08B90020A064FFF704FC05A901A8EA
:1038500000F06EF868BB2046FEF741FE18B304F195
:1038600010000599FFF7B6FC2046FEF795FF00F023
:1038700029FA00287FF47CAF00BF4FF08050104938
:10388000086040BF00BF00BF00BFBFF34F8F00BF45
:1038900000BF00BF00BF00BF00BFBFF36F8F00BFFE
:1038A00000BF00BF64E72046FEF776FF00F00AFA8B
:1038B0005EE72046FEF770FF00F004FA0020A2E762
:1038C00004ED00E02DE9F0470546894616461F46FF
:1038D0002C46FFF755FB8246A06BE16B884201D373
:1038E000022F1CD13A4649462046FEF7DAFCA06C6E
:1038F000401C70B9606A08B9012000E0002058B986
:1039000004F1240000F09EF930B12EB101203060A6
:1039100002E0A06C401CA0644FF0010801E04FF0F1
:1039200000085046FDF71FF84046BDE8F08700004C
:1039300070B504460D46FFF781FB124802682868FF
:10394000401C08B9002619E00F4920680968884220
:1039500004D06068904201D801260FE06068101A18
:103960002968884209D228686168511A401A28607B
:103970002046FFF7B3FC002600E00126FFF76AFBB4
:10398000304670BD80000020940000202DE9FF4FDC
:1039900081B0804615469946DDE90E7A2846109991
:1039A000FEF7E4FB0446002C4ED0681E216B01EBB1
:1039B000800B2BF0070B00953A462046119B02998D
:1039C000FEF7EEFC4A4641465846FEF76DFF206082
:1039D000BAF1000F01D0CAF80040FFF72FFB2D48C5
:1039E0000068401C2B4908602B48006840B92A48F1
:1039F00004600846006801280CD1FEF703FD09E0C9
:103A00002648006830B924480068C06AB84201D826
:103A10002148046022480068401C2149086021496F
:103A2000E06A0968884202D91E49E06A0860E16AD2
:103A300001EB81011C4A02EB8100211DFFF7E8FA2E
:103A40000126FFF707FB01E04FF0FF36012E1DD1E5
:103A500012480068D0B110480068C06AB84215D258
:103A600000BF30071149086040BF00BF00BF00BF62
:103A7000BFF34F8F00BF00BF00BF00BF00BF00BF3C
:103A8000BFF36F8F00BF00BF00BF00BF304605B05F
:103A9000BDE8F08F7C000020680000208800002036
:103AA0009800002084000020E001002004ED00E0E8
:103AB0000549096809B9012005E00449096809B9FF
:103AC000022000E00020704788000020A0000020B5
:103AD0000149086870470000800000202DE9F0418E
:103AE000002735480068002859D134480068401C38
:103AF00032490860084606688EB93148D0F800801F
:103B0000304800682E4908602E48C0F800802E48D2
:103B10000068401C2C490860FEF7BAFD00BF2B4826
:103B2000006886423AD300BF25480068006808B99B
:103B3000012000E0002020B14FF0FF302349086051
:103B40002BE01F480068C068C4686568AE4202D2B6
:103B50001E48056021E0201DFFF71CFAA06A18B17D
:103B600004F11800FFF716FA1949E06A096888425B
:103B700002D91749E06A0860E16A01EB8101154A40
:103B800002EB8100211DFFF743FA1349E06A09683F
:103B9000C96A8842C8D30127C6E700BF04E00F48BE
:103BA0000068401C0D4908600D48006800B10127FD
:103BB0003846BDE8F0810000A00000208000002011
:103BC0006C00002070000020940000209C00002069
:103BD00084000020E0010020680000208C0000200C
:103BE0009000002070B505462C4600261DB3E06B02
:103BF000401EE063A16BE06A88421CD0E06BD0B944
:103C0000201DFFF7C7F9A06BE062E06AC0F1030076
:103C1000A0610A49E06A0968884202D90749E06A56
:103C20000860E16A01EB8101054A02EB8100211D78
:103C3000FFF7EEF90126304670BD00008400002039
:103C4000E001002070B50646F068C46804F1180071
:103C5000FFF7A0F915480068A0B9201DFFF79AF9F1
:103C60001349E06A0968884202D91149E06A08608C
:103C7000E16A01EB81010F4A02EB8100211DFFF790
:103C8000C7F904E004F118010B48FFF7C1F90B492B
:103C9000E06A0968C96A884204D9012501200849F7
:103CA000086000E00025284670BD0000A00000204C
:103CB00084000020E0010020440200206800002071
:103CC0009000002070B50025FFF7B8F9354800686E
:103CD000401E344908600846006800285ED132481A
:103CE000006800285AD023E03048C068C46804F156
:103CF0001800FFF74FF9201DFFF74CF92C49E06A37
:103D00000968884202D92A49E06A0860E16A01EB41
:103D10008101284A02EB8100211DFFF779F926492C
:103D2000E06A0968C96A884202D301202349086011
:103D30001E48006808B9012000E000200028D3D008
:103D40001F48006878B10AE0FFF7C8FE10B10120F3
:103D50001A4908601A480068401E19490860184846
:103D600000680028F0D115480068012816D1012507
:103D700000BF00071349086040BF00BF00BF00BF7D
:103D8000BFF34F8F00BF00BF00BF00BF00BF00BF29
:103D9000BFF36F8F00BF00BF00BF00BFFFF75AF92E
:103DA000284670BDA00000207C00002044020020B6
:103DB00084000020E0010020680000209000002026
:103DC0008C00002004ED00E02DE9F04706460D468A
:103DD00017469846DDF820900DB9002410E0282001
:103DE000FEF71AFD04465CB1FEF7E2F92660A56114
:103DF000E761C4F82080C4F82490201DFFF7EBF899
:103E00002046BDE8F08700001FB50024FEF7D0F97A
:103E10000948006868B10020084A0223CDE9012062
:103E2000009303900346502205A10748FFF7AEFD1B
:103E30000446204604B010BDAC000020B0000020B5
:103E4000546D7220537663007F2700002DE9FF47F1
:103E500005460C4616461F46DDF830804FF0000937
:103E60001448006810B3009401960295062C15DAE8
:103E7000FFF71EFE022808D10023424669460D487E
:103E80000068FFF76BFC814610E000231A46694684
:103E900008480068FFF762FC814607E000233A46C5
:103EA000694604480068FFF70DFD8146484604B0A6
:103EB000BDE8F087AC000020000000506E72665F25
:103EC0006472765F6770696F74655F696E697400AC
:103ED0006E72665F6472765F6770696F74655F6F3C
:103EE00075745F696E6974006E72665F6472765F86
:103EF0006770696F74655F696E5F696E69740000F1
:103F00000000010203040005405C0000A05C040006
:103F1000C06C0800805C0400E03F1E00E07D1E00D5
:103F20000704000908054008091040080805400872
:103F30001D0400081D0400081E265626BEBED8BC5F
:103F400007A9022570889B88401008000A00160007
:103F5000010006000100020087008D002D001A31CB
:103F600052001A339A001A351D011A376B003B3183
:103F7000BE003B335E013B3596023B37000098594B
:103F80009859EA518E421E45142E0080EA51F428B9
:103F90003233E03A703DE03AC235842BC2353233D9
:103FA000C235C235AE47E03A5038A2305038000032
:103FB0000000000000000000EC51B81E85EBA13F9E
:103FC00000000000000000000000000000000000F1
:103FD000A4703D0AD7A3B03F00000000000000001D
:103FE0000040004004000000101412FF06FF000013
:103FF0000000002000000000101412FF06FF000067
:104000000000008000000000000000012C400000C3
:1040100000000020D000000048090000FC40000023
:10402000D0000020D851000058090000000005020F
:1040300014000A0A000200008100000000000000D5
:1040400000000000000000000000000000418800A7
:10405000CADE57415645E00000418800CADE564599
:104060005741E100000000000000000000000000D7
:104070000000000000000000000000000000000040
:104080000000000000000000980100200000000077
:104090000000000000000000000000000000000020
:1040A0000000000000000000000000000000000010
:1040B0000000000000000000000000000000000000
:1040C0000000000000000000FFFFFFFF00000000F4
:1040D00000000000000000000000000000000000E0
:1040E00000000000000000000000000000000000D0
:0C40F0000090D003000000000000000061
:0400000500000201F4
:00000001FF
