:020000040000FA
:10000000F8540020B1020000B9020000BB02000059
:10001000BD020000BF020000C1020000000000009D
:1000200000000000000000000000000019020000B5
:10003000C50200000000000055020000C9020000D7
:10004000110B0000CB020000FD0D0000CB020000F0
:10005000C90B0000CB02000065090000CB020000C4
:10006000CB020000CB020000CB020000CB0200005C
:10007000CB020000CB020000CB020000CB0200004C
:10008000CB020000690B0000CB020000CB02000095
:10009000CB020000CB020000CB020000CB0200002C
:1000A000CB020000CB020000CB020000CB0200001C
:1000B000CB020000CB0200000000000000000000A6
:1000C000CB020000CB020000CB020000CB020000FC
:1000D000CB020000CB020000CB02000000000000B9
:1000E0000000000000000000000000000000000010
:1000F0000000000000000000000000000000000000
:1001000000000000000000000000000000000000EF
:1001100000000000000000000000000000000000DF
:1001200000000000000000000000000000000000CF
:1001300000000000000000000000000000000000BF
:1001400000000000000000000000000000000000AF
:10015000000000000000000000000000000000009F
:10016000000000000000000000000000000000008F
:10017000000000000000000000000000000000007F
:10018000000000000000000000000000000000006F
:10019000000000000000000000000000000000005F
:1001A000000000000000000000000000000000004F
:1001B000000000000000000000000000000000003F
:1001C000000000000000000000000000000000002F
:1001D000000000000000000000000000000000001F
:1001E000000000000000000000000000000000000F
:1001F00000000000000000000000000000000000FF
:10020000DFF810D000F09CFB0048004749260000B2
:10021000AFF30080F8540020244B19680868B0E858
:10022000F04F80F30988BFF36F8F4FF0000080F329
:1002300011887047000000000548006880F30888B6
:1002400062B661B6BFF34F8FBFF36F8F00DF000060
:1002500000000000EFF30980BFF36F8F134B1A68A3
:100260001EF0100F08BF20ED108A20E9F04F10603B
:1002700008B44FF0400080F31188BFF34F8FBFF3F5
:100280006F8F03F0A9FF4FF0000080F3118808BCC6
:1002900019680868B0E8F04F1EF0100F08BFB0EC06
:1002A000108A80F30988BFF36F8F704778000020B1
:1002B0000648804706480047FEE7FEE7FEE7FEE700
:1002C000FEE7FEE7FEE7FEE7FEE7FEE7E90B0000DC
:1002D0000102000040EA01039B0703D009E008C9BE
:1002E000121F08C0042AFAD203E011F8013B00F8FB
:1002F000013B521EF9D27047D2B201E000F8012B47
:10030000491EFBD270470022F6E710B513460A4695
:1003100004461946FFF7F0FF204610BD30B50446ED
:100320000020034600E05B1C934203D2E05CCD5CFE
:10033000401BF8D030BD2DE9FE4F804681EA030016
:10034000C00F0C46009021F0004123F00045B8EBAF
:100350000200A94105D24046214690461C460B4664
:10036000024623F00040104347D0270DC7F30A0090
:10037000C3F30A510290401A019040286BDAC3F38C
:10038000130040F4801B0098924620B10023D2EB6A
:10039000030A63EB0B0B01985946C0F1400250462B
:1003A00000F069F906460D4650465946019A00F09C
:1003B00081F910EB08006141002487EA115284EAB8
:1003C000E7731A4340D0009A62B3019A012A4FEAB8
:1003D000075215DC001B61EB02014FF0004202EAFC
:1003E0000752CDE90042001C41F5801132462B46F0
:1003F00000F0B8F903B0BDE8F08F40462146F9E7B8
:10040000001B61EB0201001C41F5801300185B41E9
:100410002018A2F5001747EB030140EAD570B61982
:100420006D4111E06D084FEA360645EAC0754FEAA6
:100430000752001B61EB0201001C41F580114908C5
:100440004FEA30000019514132462B4603B0BDE857
:10045000F04F00F078B90098012240000023D0EB63
:10046000020263EBE073009821464FEAE074B8EBB8
:10047000000061EB0401E9E783F000435BE781F0F2
:10048000004158E72DE9FE4F81EA030404F00044DF
:1004900021F0004100944FF0000B23F0004350EA9C
:1004A00001045ED052EA03045BD0C3F30A54C1F3E3
:1004B0000A552C44A4F2F3340194A0FB0254C1F376
:1004C000130141F48011C3F3130343F4801301FBC0
:1004D000024400FB034E840A970A44EA815447EA27
:1004E0008357A4FB076802958D0A05FB07854FEA31
:1004F000932C04FB0C542705029D4FEA065847EA4B
:100500001637B5EB08056EEB070C870E920E47EA1F
:10051000811742EA8312A7FB0201B6EB0B0164EBE1
:1005200000042B0D43EA0C335E1844EB1C50DA46F2
:100530005146E7FB0201C5F313044FEA0B3343EACC
:1005400014534FEA0432019C43EA0603A4F10C045D
:100550000294009CCDE900B400F004F903B0BDE8BA
:10056000F08F00200146F9E70EB5C10F80EAE07078
:100570000844CA07002140F233438DE80E000A46C2
:100580000B4600F0EFF803B000BD00F0004230F081
:1005900000400AD0C10D01F56071C0F3160042EAB7
:1005A0000151C208400711437047002001467047BF
:1005B00001F0004330B421F0004150EA010206D0BE
:1005C0000A0DA2F56072C1F31301002A02DC30BCEF
:1005D00000207047440F44EAC104C100E01830BC59
:1005E00000EBC25000F078B830B50B460146002051
:1005F0002022012409E021FA02F59D4205D303FAE5
:1006000002F5491B04FA02F52844151EA2F1010265
:10061000F1DC30BD2DE9F05F0546002092469B4697
:1006200088460646814640241BE028464146474608
:10063000224600F02FF853465A46C01A914110D373
:1006400011461846224600F016F82D1A67EB0108ED
:100650004F4622460120002100F00DF817EB00095B
:100660004E41201EA4F10104DFDC484631462A46F3
:100670004346BDE8F09F202A04DB203A00FA02F14D
:10068000002070479140C2F1200320FA03F3194380
:1006900090407047202A04DB203A21FA02F0002122
:1006A000704721FA02F3D040C2F120029140084382
:1006B00019467047202A06DBCB17203A41FA02F090
:1006C00043EAE07306E041FA02F3D040C2F12002AF
:1006D00091400843194670470029A8BF7047401C45
:1006E000490008BF20F00100704710B4B0FA80FC48
:1006F00000FA0CF050EA010404BF10BC704749B185
:10070000CCF1200421FA04F411FA0CF118BF0121F4
:1007100021430843A3EB0C01CB1D4FEA00614FEAD4
:10072000102042BF002010BC704700EBC3501044A3
:100730000029A4BF10BC7047401C490008BF20F02E
:10074000010010BC704710B5141E73F1000408DAE4
:10075000401C41F1000192185B411A4301D120F085
:10076000010010BD2DE9F04D92469B4611B1B1FA42
:1007700081F202E0B0FA80F220329046FFF77BFF70
:1007800004460F4640EA0A0041EA0B0153465A4626
:10079000084313D0114653EA010019D0C8F14002B2
:1007A0005046FFF777FF05460E46504659464246EB
:1007B000FFF761FF084305D0012004E020463946D9
:1007C000BDE8F08D0020054346EAE0762C43374330
:1007D0000A986305E40AA0EB08000022FD0A44EA37
:1007E00047540A3002D500200146E9E701051019F7
:1007F0006941DDE9084500196941BDE8F04DA2E70E
:100800002DE9F04D81EA030404F0004B21F000458E
:1008100014464FF0000A23F0004150EA050220D0B0
:1008200054EA01021DD0C5F30A570246C5F313036B
:10083000C1F31300C1F30A5640F4801543F480134A
:10084000A7EB0608101BD64608F2FD3873EB05002F
:1008500002D308F1010801E092185B41B8F1000FE2
:1008600003DA00200146BDE8F08D00204FF480112E
:10087000064684460EE0171B73EB050705D3121BD3
:1008800063EB050306434CEA010C49084FEA3000CC
:1008900092185B4150EA0107EDD152EA030012D0F1
:1008A00082EA040083EA0501084305D0101BAB412E
:1008B00006D20122002306E000224FF0004302E0AE
:1008C0006FF0010253101AEB06004CEB085110EBCD
:1008D0000A0041EB0B01BDE8F04DFFF734BFC1F357
:1008E0000A52C1F3130140F2FF3341F480119A42DE
:1008F00002DA00200146704740F233439A42A2F2E6
:10090000334202DC5242FFF7C5BEFFF7B4BE00001F
:1009100030B5041E71F1000404DB4FF00044404286
:1009200064EB0101141E73F1000405DB1C464FF05B
:100930000043524263EB0403994208BF904230BD2A
:10094000064C074D06E0E06840F0010394E807001C
:1009500098471034AC42F6D3FFF756FC8C4B00009E
:10096000AC4B00002DE9FF5F0025A846CDF80C80B8
:100970004FF4807901240026634F484602F09CFB27
:1009800038B1D7F80403204018B1484602F08AFB7A
:100990002543640009F104091FFA89F9761C082E21
:1009A000EBD34FF4BE74204602F086FB48B12046DC
:1009B00002F078FB45F0004503AA0121002002F077
:1009C0005FFBDFF8489115F0FF0F15D001260024DA
:1009D0002E420DD007EB8401D1F81005C0F304209E
:1009E000D1F81015C1F3014159F8242002B1904704
:1009F0007600641C082CEBD3002D73DACDF8088048
:100A00000020411E0DF1040848F82010401C002869
:100A1000FAD00024002509EB050010F8506F26F0ED
:100A2000C00B90F90000401C3FD001A9584601F0CE
:100A3000EBFED0B3B609584601F09CF859F8207087
:100A40000FB9032E31D1032E0CD102A84FEADB01DE
:100A50000BF00702435C4FF0010C0CFA02FC43EA76
:100A60000C0343544FF0A04000EB8B00D0F800077C
:100A7000C0F3014A03A9584601F0C6FE10B1BAF10D
:100A8000020F03D088B9BAF1030F0ED1032E08D19B
:100A9000BAF1020F1ED00221584602F0DAFA641CA5
:100AA000E4B217B131465846B8476D1C042DB2D395
:100AB00034B301256A460121002002F0E1FA00204A
:100AC00003A96A4651F8206052F82030B34203D09F
:100AD000002504E00321DFE7401C0028F2D015B117
:100AE00000240DE00EE0002002AB52F8205041F847
:100AF000205053F8205048F82050401C0028F4D0D3
:100B0000002C86D1BDE8FF9F00600040F40000206B
:100B10002DE9F0414FF48077384601F07DFE012445
:100B2000104EA50748B1384601F07DFE0120C5F8FA
:100B300008037470002001F025F84FF482773846DE
:100B400001F06AFE00280BD0384601F06CFE02204E
:100B5000C5F80803B470BDE8F041012001F012B8F7
:100B6000BDE8F08190010020F8B50025EFF3118673
:100B7000402080F311881248D0F80444002101601D
:100B80000068009003F0FCFD201A20F07F44012C47
:100B900008D903F0E7FD022804D0012402E003F0A5
:100BA000F5FD0543641E601CF9D125B105494FF0E0
:100BB0008050086040BFF0B280F31188F8BD00009B
:100BC0000011014004ED00E002494FF0402001F027
:100BD000E1BC00004C010020024901480860704758
:100BE0000090D003D400002070B501F053FB4FF00B
:100BF000805528B1B5F824037249C0F30420086079
:100C000001F084FB10B171496F48486701F094FB13
:100C100028B1D5F844026E49C0F34230086001F0B3
:100C2000A9FB20B16B48016821F08071016001F0DF
:100C3000B7FB002428B16848046044606448001F82
:100C4000046001F0CBFB18B16149032064310860F6
:100C500001F0DAFB012658B16049052008605F48C1
:100C6000783006605D4808300460091D3F20086048
:100C700001F0E0FBF0B35A4800685A490860584850
:100C8000001D0068091D0860554808300068091DEE
:100C9000086053480C300068091D08605048103047
:100CA0000068091D08604E4814300068091D08607E
:100CB0004B48183000684B492031086048481C30C8
:100CC0000068091D0860464820300068091D08605A
:100CD000434824300068091D0860414828300068F6
:100CE000091D08603E482C300068091D08603C481A
:100CF000303000E017E000683A4940310860384879
:100D000034300068091D0860354838300068091D16
:100D1000086033483C300068091D086030484030A6
:100D20000068091D086001F097FA28B1D5F858024B
:100D30002D4900F04F00086001F0CAFA30B12B488D
:100D40000168C90702D06FF00101016021487438C1
:100D5000016841F470010160BFF34F8FBFF36F8FE3
:100D60004FF01022D2F80002002803DBD2F8040270
:100D7000002822DA1E4B1E601E4801680029FCD0A4
:100D80001525C2F8005201680029FCD0C2F80452AF
:100D900001680029FCD01C6001680029FCD0BFF369
:100DA0004F8F0C48F0380168134A01F4E061114399
:100DB0000160BFF34F8F00BFFDE7BDE87040FFF754
:100DC0000BBF0000403501400DF0ADBA00C0074038
:100DD0003C050040FCED00E00C01004010560040D6
:100DE0000404001020C50040E40E00400004004050
:100DF00004E5014000E401400400FA050548017FD4
:100E00000548002902D0034902F0E7BF014902F07A
:100E100051BF000070010020002000400FB4054BBE
:100E200010B503A9044A029800F0A8F910BC5DF8B7
:100E300014FB0000A92400006C00002002E008C898
:100E4000121F08C1002AFAD170477047002001E044
:100E500001C1121F002AFBD1704710B500220221E8
:100E60002C2001F0B1F90222BDE8104011462C20DF
:100E700001F0AAB910B504466D2240F606012E20F5
:100E800001F0A2F941F6060134B1BDE8104040F28C
:100E900007622E2001F07CB9BDE8104041F20762E4
:100EA0002E2001F075B910B5002000F007F80022DF
:100EB0000421BDE81040362001F06AB938B5044677
:100EC0006B4602220021362001F03CF80F2C5CD248
:100ED000DFE804F012081A5B5B5B5B22315B5B3E70
:100EE000454C550000208DF800009DF8010000F0F1
:100EF000FE008DF8010048E09DF8000000F0FC00C5
:100F0000401C8DF8000040E09DF8000000F0FC005F
:100F1000801C8DF8000038E09DF8000000F0B30060
:100F200040F048008DF800009DF8010040F080007E
:100F30008DF8010029E09DF8000000F0B3008DF865
:100F400000009DF8010000F07F008DF801001CE01A
:100F50009DF8010040F002008DF8010015E09DF8B9
:100F6000010000F0FD008DF801000EE09DF800008A
:100F700000F0CF0040F020008DF8000005E00120D7
:100F80008DF8000003208DF801006B46012200213E
:100F9000362001F021F901220DF10103114636201E
:100FA00001F01AF938BD10B50E20FFF787FF4FF496
:100FB000004206212D2001F0EBF8012000F0F6FDA3
:100FC000BDE810400120FFF779BF10B582B20421BF
:100FD0002D2001F0DDF8032206212D2001F0F4F888
:100FE000002206212D2001F0EFF80A21BDE8104073
:100FF0002D2000F06CBF00002DE9FF5F82B00021C2
:10100000DDE90430020DDDF840B0034318D044F6AA
:101010001050A2F2FF3242431514119801281FD03C
:10102000A5EB0B00401C5FEA000A4FF000064E4F94
:10103000DFF83891B046504615D5CAF1000413E0E8
:10104000119801244AA3012801D16FEA0B010298EB
:10105000119AC0E90031C0E9024206B0BDE8F09F34
:10106000CBF10000DFE704460021404A491842EB7B
:101070000450CDE9001012E0E00707D032463B46AD
:1010800040464946FFF7FEF98046894632463B46D0
:1010900010461946FFF7F6F906460F466410002C75
:1010A000EAD1DDE90401DDE90023BAF1000F06DA37
:1010B000FFF7E8F942464B46FFF7E4F905E0FFF792
:1010C0009FFB42464B46FFF79BFB04460E46002221
:1010D000284BFFF71DFC03D84FF0FF30014607E017
:1010E0000022254B20463146FFF725F9FFF7F7FB95
:1010F000102409E0002C0ADB0A220023FFF78AFAF9
:10110000039B30321A55641E50EA0102F2D1641C6E
:10111000039AC4F111031444119A012A03D0012245
:1011200008430DD10AE0084304D000204FF0110B12
:10113000119072E7A3EB0B056D1E0DE05B4504DD1E
:101140004FF0000205F1010504E003DA4FF0000260
:10115000A5F10105002AECD002981199C0E90231ED
:10116000C0E9004579E70000000014400000F03FAE
:10117000300000000000F0430000E03F2DE9FF4F89
:1011800095B09A46884606460025EEE1252877D197
:1011900000242746F94A0121039400E0044316F88D
:1011A000013F203B01FA03F01042F7D130782A28A2
:1011B00011D06FF02F033078A0F13002092A16D831
:1011C000039A44F0020402EB820203EB4202104451
:1011D000761C0390EFE758F8042B0392002A03DAF9
:1011E000504244F40054039044F00204761C3078DA
:1011F0002E2816D116F8010F44F004042A280DD029
:101200006FF02F023078A0F13003092B09D807EBDB
:10121000870302EB4303C718761CF3E758F8047BF7
:10122000761C30786C280FD006DC4C2817D0682844
:101230000DD06A2814D104E0742810D07A280FD178
:101240000DE044F400140AE044F4801401E044F496
:1012500040147278824202D104F58014761C761C08
:10126000307866280BD013DC582877D009DC0028AA
:1012700075D04528F6D04628F4D047281AD193E1F6
:1012800018E0632835D0642879D0652812D18BE125
:10129000702873D008DC6728F1D069286FD06E28D9
:1012A0000DD06F2806D1ACE073282CD0752874D0EF
:1012B000782853D05246179990476D1C54E1C4F3D7
:1012C0000250022809D003280DD0D8F800100428B5
:1012D0000DD00D6008F1040846E1D8F80010EA17B7
:1012E000C1E90052F6E7D8F800100D80F2E70D7062
:1012F000F0E718F8041B8DF8001000208DF80100AD
:10130000EB46012003E058F804BB4FF0FF306107C3
:101310004FF0000102D40DE009F101018946B94204
:101320000FDA8145F8DB1BF809100029F4D108E039
:1013300009F1010189468142FADB1BF809100029F5
:10134000F6D103985346A0EB090721463846179A71
:1013500000F080FA284400EB090507E044E008E1CA
:101360000DE01BF8010B524617999047B9F101099E
:10137000F7D2534621463846179AF2E039E00A215F
:10138000C4F302524FF0000B0091022A06D058F825
:10139000040BC117032A09D00AE023E008F1070073
:1013A00020F00702F2E80201904605E000B2C11702
:1013B000042A01D140B2C117002906DA0A460021E9
:1013C000404261EB02012D2202E0220504D52B22CE
:1013D0008DF80420012203E0E20701D02022F7E784
:1013E000914657E00A2100E010214FF0000B0091D8
:1013F0000BE010214FF0000B44F00404082700918B
:1014000003E008204FF0000B0090C4F30252022AC0
:1014100005D058F8040B0021032A08D008E008F191
:10142000070020F00702F2E80201904603E080B2D4
:10143000042A00D1C0B24FF0000922072AD5327821
:10144000702A07D0DDF800C08CF0100C5CEA0B0CA1
:1014500005D00EE040228DF80420012208E050EA79
:10146000010306D030238DF804308DF805200222C8
:101470009146009B83F0080353EA0B030AD150EA1C
:10148000010201D1620705D530228DF804204FF00A
:1014900001097F1E3278582A04D039A20C920CAA76
:1014A00002920BE03BA2F9E75B46009AFFF7B2F825
:1014B0000C9B9B5C029A521E0292137050EA01022E
:1014C000F2D1029804A9081A00F1200B600702D596
:1014D00024F4803400E001275F4502DDA7EB0B0018
:1014E00000E0002000EB0B01009003984944401AF3
:1014F0000390E00306D453462146179A039800F060
:10150000A9F90544002706E001A85246C05D1799D5
:1015100090476D1C7F1C4F45F6DBE0030CD553460E
:101520002146179A039800F095F9054404E030200D
:101530005246179990476D1C0099481E009000294B
:10154000F5DC08E00298029952460078491C0291A5
:10155000179990476D1CBBF10001ABF1010BF1DC59
:101560005BE100F065F90544761C307800287FF4D3
:101570000DAE19B02846BDE8F08F00000928010023
:1015800030313233343536373839616263646566F9
:1015900000000000303132333435363738394142BB
:1015A0004344454600000000600700D4062708F1C8
:1015B000070020F00700F0E80223804603F0004C0B
:1015C0005FEA0C0001D097A009E0200501D596A0A4
:1015D00005E0E00701D095A001E0AFF24C001390C8
:1015E000307823F0004365280CD006DC452809D06C
:1015F00046281DD047287FD13BE0662818D06728B1
:101600007AD136E00021112F01DB112000E0781C97
:10161000CDE9000104A90CA8FFF7EEFCDDE90D01FE
:101620000C9A4FF0000B07F10109109200914EE067
:101630004FF000400097CDE9011004A90CA8FFF776
:10164000DBFCDDE90D020C9B0F994FF0000B91467E
:101650001093009211B9791C00EB0109B7EB090056
:1016600003D4C0F1FF3B07F10109A9EB070001908A
:1016700042E0012F00DA01270021112F01DD1120A6
:1016800000E03846CDE9000104A90CA8FFF7B4FC3E
:10169000DDE90D010C9A00914FF0000BB946109254
:1016A00021070FD4009A4A4503DA914601E0A9F1D7
:1016B0000109B9F1010F05DD109AA9F10101515C91
:1016C0003029F4D0B84202DA10F1040F03DA012114
:1016D000CDE9011010E0002803DC8344A9EB0001F0
:1016E00002E0411C494500DD8946A0EB0B00401C8F
:1016F00001904FF000400290200705D40198484522
:1017000002DB4FF0FF30019000208DF84B00029873
:101710000DF14B07B0F1004F25D002200C902B208B
:101720000D90029800280CDA404202902D200D9076
:1017300007E00A210298FEF757FF3031029007F8C0
:10174000011D0C99481E0C900029F2DC029800281B
:10175000EFD1791E0D980870307800F0200040F02D
:10176000450007F8020D11A8C01BC01D0290139878
:10177000007800B1012000EB0901019801EBE07154
:10178000029801440398401A401E0390E00306D4D7
:1017900053462146179A039800F05CF805441398C5
:1017A000007818B15246179990476D1CE00323D575
:1017B00053462146179A039800F04CF805441BE065
:1017C000BBF1000F07DB0098584504DD109817990E
:1017D00010F80B0001E0179930205246904701980D
:1017E0000BF1010B401E05F10105019004D12E20E3
:1017F0005246179990476D1CB9F10001A9F10109F2
:10180000DEDC05E017F8010B5246179990476D1C76
:101810000299481E02900029F4DC53462146179A8B
:1018200003989EE62D0000002B0000002000000021
:101830002DE9F041044600251E461746880404D4CD
:1018400005E039462020B0476D1C641EF9D52846B6
:10185000BDE8F0812DE9F041044600251E46904682
:10186000C80301D5302700E02027880404D505E00F
:1018700041463846B0476D1C641EF9D52846BDE880
:10188000F081000009480068C00700D000BEBFF327
:101890004F8F0648E4380168054A01F4E0611143BE
:1018A0000160BFF34F8F00BFFDE70000F0ED00E0E7
:1018B0000400FA050EB500210091019102906A46DC
:1018C00044F20100FFF7DEFF0EBD10B58268C36869
:1018D0009A1A002A03D000F0C3FD002010BD052095
:1018E00010BD002905D012B1531E134203D00920A8
:1018F00070470E2070470160838000218160C160C5
:101900000020704710B58268C3689A1A83889A428B
:1019100003D800F0AFFD002010BD042010BD000072
:10192000F0B589B004460D461F46294E7260002D61
:101930001BD0A888296882B22648FFF7D2FF00286A
:1019400014D1A889A96882B222481030FFF7C9FFD4
:1019500000280BD12022204901A8FEF7BBFC6069BA
:101960000790207C20B1012003E0072009B0F0BDE2
:1019700000208DF818008DF82070607C08B10E20D2
:1019800000E000208DF81900E0680390A068049042
:1019900020680290606801900D48104A01A9083043
:1019A00001F0F6F80028E1D1B0702068401C0DD09D
:1019B0009DF8210018B90648083001F07BF9044968
:1019C0000122491CC81D01F019F9CFE70020CDE71D
:1019D0005C000020A4010020784A0000093C0000BF
:1019E00010B501460B48FFF78DFF044684B90A483D
:1019F00001F0BEFA60B9084906480839FFF765FFEB
:101A000030B9054901220839034801F015FA0446A6
:101A1000204610BDB40100206400002000F002B890
:101A200000F008B872B602480168491C01607047AE
:101A30005800002003490868401E0860002800D1B3
:101A400062B67047580000202DE9F04105460C466B
:101A50004FF0A04720684FF00106411C06D006FA5F
:101A600000F1C7F80815206801F0E9FA6068411C28
:101A700002D0002101F0D0FA28792E4901EB401064
:101A8000007F58B32968A069C1F82405617D227DD3
:101A900028681143C0F86C15D4E900122868C0F812
:101AA0000C15C0F81425207D012815D1A068411C13
:101AB00002D0002101F0B0FAE068411C05D0864058
:101AC000C7F80865E06801F0BAFAD4E9022128688D
:101AD000C0F80815C0F81025BDE8F0812868A16994
:101AE000C0F82415607D217D2A680843C2F86C0582
:101AF000D4E900122868C0F81425C0F80C15207D20
:101B00000128E9D1A068411C02D0002101F084FA2B
:101B1000E068411C05D08640C7F80865E06801F020
:101B20008EFAD4E902212868C0F80815C0F81025FB
:101B3000D2E70000700100201FB50B480090202064
:101B400001900948203002904FF400700390072361
:101B5000064A69460648FFF7E3FE10B1002004B0CC
:101B600010BD0120FBE70000D4120020314200002C
:101B7000744B00000249084490F93000704700009F
:101B8000F400002070B50546002D01D0064C05E09C
:101B9000054C083C02E0416828468847204600F092
:101BA0000CFD0028F7D170BDA001002000F043BE5D
:101BB0002DE9F05F04464FF00008C14625786079B2
:101BC000774931F810706078401EC6B2042D76D087
:101BD000072D74D0C246DFF8CCB1E279DBF8000003
:101BE000002A41696ED021F480014161217A01729D
:101BF000416921F440324261217A4FF4403303EAD3
:101C000001410A4342610021042000F0CEFA3A4625
:101C100042F604012E2000F0BBFA3046FFF72AF905
:101C2000614F6249785D51F8202007212B2000F098
:101C3000BCFA785D5E490A5C0B212B2000F0C4FAE7
:101C40005C480B2110F80A20282000F0BDFA785DCE
:101C5000594951F820200C21282000F0A6FAE079FB
:101C6000564901EB8000A17930F81120022127208C
:101C700000F08EFA5248042130F81620272000F098
:101C800087FAE07918B3A078042826D0202206210C
:101C9000272000F07DFA28222621272000F094FA40
:101CA0004848E17800EB061050F821200821272051
:101CB00000F07BFA6089D8B11DE000E002E04FF04F
:101CC000010A88E741F480014161FF088EE7642240
:101CD0000621272000F05CFAE2E7102206212720E7
:101CE00000F056FA10222621272000F06DFAD7E7DF
:101CF00041F24100608162892021272000F048FAEA
:101D0000314F0C2123203A6800F04FFA07EB4600D0
:101D100004218288232000F03BFAA07950B1E079B9
:101D20002A490A5C0021212000F04EFA4FF00308F6
:101D30004FF0010905F00F00290740EA11606178B2
:101D40004FF4402202EA81410843910001EA085120
:101D500008434FF4003101EA4941084321794FF02B
:101D6000F86202EA81510843617940EAC1620021C8
:101D70001F2000F01AFAA07861780843E179000486
:101D800040EA4132DBF80000C2600021082000F088
:101D90000CFABDE8F05F422200210D2000F014BAD9
:101DA000144B000070000020984A0000B84A000060
:101DB000D04A0000D64A0000A04A0000E44A0000D1
:101DC000F04A0000F44A0000D84A0000E04A00004F
:101DD00070B50646344D002229684A748A760A8313
:101DE0008A62CA620A634A6300F0A8F82F498842EF
:101DF00001D0881770BD00F071F90020FFF75EF880
:101E000004220021242000F0DFF91E20FFF7DDF876
:101E100084B22968200A48720420FFF7D6F810F02F
:101E2000FF0F09D0022212212D2000F0CDF92868E1
:101E3000018B41F4805101830620FFF7C6F8296821
:101E400008600720FFF7C1F82968486004F01F0008
:101E5000087408B910200874087C00F036F9F007FF
:101E600007D0FFF7A0F82868018B41F400610183D7
:101E700009E00521362000F01BF820F4007205214E
:101E8000362000F085F90120FFF718F800220A211A
:101E90002C2000F099F90021042000F018F829689E
:101EA0004861002070BD0000700000203001CADED3
:101EB00008B589B280B26B46022200F043F89DF863
:101EC00000009DF8011000EB012080B208BD38B57C
:101ED000002489B280B26B46042200F033F803215B
:101EE0006846425C02EB0424491E0029F9DA2046C8
:101EF00038BD08B589B280B26B46012200F022F8E5
:101F00009DF8000008BD000038B500246B46032290
:101F10002821272000F016F802216846425C02EBD7
:101F20000424491E0029F9DAE00202D502482043C0
:101F300038BDC4F3140038BD0000F0FF002108468E
:101F4000FFF7C5BF08B500290AD040F040008DF862
:101F50000000C8B27F2907D802218DF801000BE0EC
:101F600001218DF8000007E040F080008DF80100AD
:101F7000C80903218DF8020088B2694601F01EFCF1
:101F800008BD30B40C4611462246034630BC112031
:101F9000FFF7D8BF00211520FFF799BF00211720B8
:101FA000FFF795BF10B5E0220321362000F00CF9B1
:101FB000F0220321BDE81040362000F005B90000F2
:101FC00070B50446E00729D000212620FFF77FFFE7
:101FD00020F4705040F4A0520021262000F0E5F8D3
:101FE00000213620FFF773FF40F404020021362061
:101FF00000F0DBF84FF48875A00700D50E4D2821BE
:102000002A46362000F0D1F8A00713D525F4702217
:10201000BDE870402821362000F0C7B800212620F6
:10202000FFF755FF20F47052BDE8704000212620D4
:1020300000F0BBB870BD000010010F0010B50446E1
:1020400000211A20FFF743FF6FF31300C4F31302BC
:1020500002430021BDE810401A2000F0A6B8024655
:1020600041F604012E2000F093B8000070B506463A
:1020700003210420FFF73DFF0446104D8EB1324688
:1020800000210C2000F084F844F010022868416917
:1020900041F080514161BDE870400321042000F00F
:1020A00093B824F010022868416921F08051416101
:1020B000BDE870400321042000F086B870000020C5
:1020C00002460021182000F063B800F01F0040F025
:1020D00060020E212B2000F077B8000010B5FEF74B
:1020E000E2FE002211462C2000F052F800220621C8
:1020F0002C2000F069F8FEF7B0FE00220321362004
:1021000000F062F80120FFF751FDF0220321362094
:1021100000F05AF8024900200968887610BD0000D6
:10212000700000202DE9F041064600250024174FDD
:10213000B00708D58024224600210D2000F044F885
:10214000396801208876F00716D044F00602002195
:102150000D2000F039F803210F20FFF7A9FE10F43D
:10216000816F0FD0402200210D2000F02DF839683A
:1021700000208876451E05E044F0020200210D2073
:1021800000F022F82846BDE8F08100007000002031
:1021900008B58DF80020120A8DF8012089B280B2AE
:1021A0006B46022200F018F808BD38B500236C46D3
:1021B000E254120A5B1C042BFADB89B280B26B4634
:1021C000042200F009F838BD07B589B280B202AB2D
:1021D000012200F001F80EBD38B500290AD040F008
:1021E000C0008DF80000CCB27F2909D802208DF8FC
:1021F00001400DE040F0800101208DF8001007E063
:1022000044F080008DF80100C90903208DF8021008
:1022100080B2694602F016F838BD10B50B4611467B
:102220000A18B2F5806F05D8821E0920FFF7D4FF87
:10223000002010BD4FF0FF3010BD0000890541EABD
:10224000C23204490968C96801430A4300210820D1
:10225000FFF7ABBF700000200D48007806280FD1B3
:102260000B48001D007800070AD1094808300078A3
:10227000C0F30310032805D0042805D0052805D095
:1022800000207047012070470120704701207047EF
:10229000E00F00F00D48007806280FD10B48001D14
:1022A000007800070AD1094808300078C0F303100D
:1022B000032805D0042805D0052805D00020704744
:1022C000012070470120704701207047E00F00F0A7
:1022D0000D48007806280FD10B48001D0078000734
:1022E0000AD1094808300078C0F30310032805D04C
:1022F000042805D0052805D000207047012070472C
:102300000120704701207047E00F00F00948007875
:1023100006280BD10748001D0078000706D10548A4
:1023200008300078C0F30310032801D00020704764
:1023300001207047E00F00F00D48007806280FD10B
:102340000B48001D007800070AD1094808300078C2
:10235000C0F30310032805D0042805D0052805D0B4
:10236000002070470120704701207047012070470E
:10237000E00F00F00948007806280BD10748001D3F
:102380000078000706D1054808300078C0F3031034
:10239000032801D00020704701207047E00F00F0B3
:1023A0000D48007806280FD10B48001D0078000763
:1023B0000AD1094808300078C0F30310032805D07B
:1023C000042805D0052805D000207047012070475B
:1023D0000120704701207047E00F00F009480078A5
:1023E00006280BD10748001D0078000706D10548D4
:1023F00008300078C0F30310032801D00020704794
:1024000001207047E00F00F00948007806280BD142
:102410000748001D0078000706D1054808300078FD
:10242000C0F30310032801D000207047012070473B
:10243000E00F00F00948007806280BD10748001D7E
:102440000078000706D1054808300078C0F3031073
:10245000052801D00020704701207047E00F00F0F0
:10246000826883881A4003689A5C0A708168491CF4
:1024700081607047C26883881A4003689954C168B4
:10248000491CC160704710B50446A07FFF2801D0E9
:1024900000F0EEFD002060772072D4E9002104F105
:1024A0000800BDE81040104710B50446E0B2FFF741
:1024B00097FA204610BD000010B5002821D0114B1E
:1024C0000022001F196803E0814203D80A464968C8
:1024D0000029F9D152B11368841A9C4204D10068D2
:1024E00018441060104602E0506000E0186039B1F6
:1024F00002680B1A934203D10B681A4402604968C0
:10250000416010BDD800002070B504460D4620790A
:102510001D494FF4A27601EB4010017F206800298D
:102520001DD04FF4887100F0E7FD4FF490712068E2
:1025300000F0E2FD4FF49271206800F0DDFD3146BD
:10254000206800F0D9FD11492068C0F80413206804
:1025500000F004FA2946BDE8704000F0E3B94FF4FA
:102560008E7100F0B8FD3146206800F0B4FD0849D6
:102570002068C0F80413206800F0F0F92946BDE88F
:10258000704000F0CFB9000070010020100302007D
:102590008000020038B50C460022C0F80821D0F8AF
:1025A00008110091214601F0D8FA002804D12046F4
:1025B000BDE83840FFF767BF38BD0146086800280E
:1025C00001D002680A6070470268134602E08A423E
:1025D00006D01268002AFAD103B900230B6001600B
:1025E00070470000074D2C072E1D371D286824EA70
:1025F0000001316000F080403860C82001F022FD09
:10260000F4E7000004050050064800684FF0004160
:10261000044A8143121D1160111D00F00040086042
:10262000704700000405005010B54FF4827000F0B0
:10263000FAF802200249086002490120086010BD32
:1026400004030040080000401FB500240127394E54
:10265000002507FA04F0304207D0204601220095F9
:1026600000231146019500F08FFC641C202CF0D350
:1026700031480660001F2C4605603048CDE9010452
:1026800002264FF4827700233A462DA12E48009669
:10269000039401F0F7FF2D480090002301224FF42E
:1026A000FA612BA002F078F9244D2D1FA86002F0EA
:1026B00067F80246009400230121A86802F0AEF9F1
:1026C0002846CDE9010400233A4623A12548009677
:1026D000039401F0D7FF13200022009423461146F3
:1026E000019400F051FCFFF727FA1FA0FEF796FBBC
:1026F00001F0A6F800F026FD0120FFF769FB401C61
:1027000017D000F0FFFC05F10C00FFF751FA44F27E
:102710004800FFF7A4FC43F6AC70FFF7D1FC64203F
:10272000FFF78CFC4FF6E850FFF7A0FC01F024FD0A
:10273000FEE7FEE7000040C00C050050040000204A
:102740004C45443000000000E5250000092600004B
:102750004C4544310000000053535457525F494EDA
:1027600049540000493B000053696E676C65642062
:1027700053696465642054776F20576179205261F2
:102780006E67696E6720496E69746961746F722043
:102790004578616D706C65200D0A0000F0B50B3056
:1027A000154D20F007010024144A0FE003688B4206
:1027B0000BD38B4205D95E1A43184768C3E90067FB
:1027C00000E04368136002C004E0021D10680028A6
:1027D000ECD12046002802D1286808B10020F0BDC5
:1027E000064A07481060074A121A22F00702C0E999
:1027F000002401202860D7E7DC000020D80000205A
:10280000FC140020F8340020C20800F00703012067
:10281000895C98400840704700F1804000680028BB
:1028200000D00120704708B500F180400021016010
:102830000068009008BD4FF47A714843AFF3008000
:1028400000283ED01F4A2049126800BF00BF00BFC9
:1028500000BF00BF00BF00BF00BF8A422FD000BF33
:1028600000BF00BF00BF00BF00BF00BF00BF00BF70
:1028700000BF00BF00BF00BF00BF00BF00BF00BF60
:1028800000BF00BF00BF00BF00BF00BF00BF00BF50
:1028900000BF00BF00BF00BF00BF00BF00BF00BF40
:1028A00000BF00BF00BF00BF00BF00BF00BF00BF30
:1028B00000BF00BF00BF00BF00BF00BF00BF0138A6
:1028C000C3D17047D40000200024F40070B5044642
:1028D000134DA87800280ED014B1616801208847F4
:1028E0000020FFF79BF8E868401CE860BDE87040F6
:1028F0000020FFF795B80020FFF790F824B10848B2
:1029000021461030FFF760FEE86808B9FFF78CFE3B
:10291000E868401CE860BDE870400020FFF780B820
:10292000900100204907090E002806DA00F00F0286
:1029300002F1E02282F8141D03E000F1E02282F8A7
:10294000001400F01F02012191404009800000F1B5
:10295000E020C0F88012C0F800117047000B40B2B0
:1029600070470121B1EB507F01D101207047002059
:10297000704700002DE9FC5F06460C46707900EBBD
:10298000C001484800EB8105287F002802D00820BC
:10299000BDE8FC9F2A606B60207B4FF0A04B4FF09E
:1029A0000108012805D8217808FA01F0CBF80C05B8
:1029B00002E0207800F05CFB4FF00009CDF80090B9
:1029C000CDF8049020784B464A46012100F0EEFAFB
:1029D00067784FF0FF3AFF2F07D008FA07F0CBF8DF
:1029E0000C05384600F021FB00E05746A078FF2890
:1029F0000AD08246504601230022CDF800901146AD
:102A0000CDF8049000F0D2FAE078FF2804D000F06E
:102A10002FFBE07800F009FB7079224B00EBC0003F
:102A200003EB8000E178817731682078C1F80805F0
:102A3000C1F80C75C1F810A5A068C1F82405207B69
:102A4000627B0AB1012200E00022012804D00228A2
:102A500005D0032808D105E042F0020204E042F06C
:102A6000040201E042F00602C1F85425707962794F
:102A700000EBC00003EB8000C277286810B104208F
:102A8000C1F80403C1F80085286820B1217996F9BE
:102A90000400FFF747FF484685F81D9085F81C8025
:102AA00076E700004C0100201FB5069C00910293C0
:102AB0008DF804208DF80C400022694600F026F8BD
:102AC00004B010BD10B541790F4A01EBC10102EB12
:102AD00081010A68002A0BD090F90420012302F03A
:102AE0001F04A3405209920002F1E022C2F8803193
:102AF00000680A681AB14FF0FF32C0F808230022BC
:102B0000C0F800250A7710BD4C0100202DE9F041E6
:102B100006460B46174670791C4900EBC00001EBD6
:102B200080010025487F002802D01120BDE8F081F7
:102B30000868012418B117F0140F00D14C7793E8FE
:102B40000510D3F80C80C1E905C8C1E9030291F86A
:102B5000210020F0010020F0020020F0040081F8A4
:102B600021008A7FFF2A05D04FF0A040944000F258
:102B70000C5004601FB100204877062503E01A4678
:102B8000306800F0C7FE2846D0E700004C01002066
:102B90002DE9F04105460E4617462879DFF85880A2
:102BA00008EB4014E07E002802D00820BDE8F08148
:102BB000707F207731462846FEF746FF6760306910
:102BC00020601FB1317F2846FFF79EFC287908EB73
:102BD0004010007F20B128680821C0F8001503E0EC
:102BE00028680421C0F800150020E0752076A07543
:102BF0000121E176A076D9E7700100202DE9F041AE
:102C000005460F4690462879294E06EB4014207F52
:102C1000002803D03846FFF7A4FE78B1002360688F
:102C20004FF404714FF4017270B1287906EB401033
:102C3000007F30B12868C0F8081305E01020BDE817
:102C4000F0812868C0F80823E07D90B1207E78B13B
:102C5000606858B1287906EB4010007F18B12868E9
:102C6000C0F8041302E02868C0F804231120E6E746
:102C7000012373B1276184F81880287906EB40108E
:102C8000007F68B1424639462846BDE8F04100F071
:102C90007DB884F81780E760002060762076ECE746
:102CA000424639462846BDE8F04100F01BB8000016
:102CB0007001002070B50446094D207905EB4011E4
:102CC000087F00280AD1887E002807D1204600F01E
:102CD0000AFE2179012005EB4111887670BD0000C4
:102CE000700100202DE9F05F04462749207901EBAF
:102CF0004015A87E002803D113B9204600F0F3FD4B
:102D0000686838B120684FF40171C0F804130020DE
:102D1000BDE8F09F4FF4A2794946206800F0DBF946
:102D20004FF4927A4FF4847B5146206800F0CEF93C
:102D300007465946206800F0C9F980464946206890
:102D400000F0C4F9064648EA060858EA0708EBD03E
:102D500057EA060007D12946206800F09FFDE87D6C
:102D6000697E8842E0D80020E8750FB10320CFE7E4
:102D70000EB10F20CCE7A87E012110B120680160C0
:102D8000C5E720684160C2E7700100202DE9F05FCF
:102D900004460E461746984600254FF48879494662
:102DA000206800F0A9F94FF4A27A5146206800F09B
:102DB000A3F92068C0F83465C0F83875B8F1000F81
:102DC00015D02068D0F8001241F02001C0F80012A0
:102DD0002079DFF8608008EB4010406858B1206827
:102DE0004FF40471C0F804132846BDE8F09F206832
:102DF00001210160ECE74FF4927B4946206800F026
:102E000076F907465146206800F071F906465946A2
:102E1000206800F06CF937430743EED02279002197
:102E200008EB4212D17500B10325002EDCD00F252E
:102E3000DAE70000700100202DE9F04704460F4654
:102E400090462079264E06EB4015287F002803D0B7
:102E50003846FFF786FD30B1204600F089F820B1F2
:102E60001120BDE8F0871020FBE785F81680AF60E1
:102E70004FF00008A5F81480207906EB4015287F54
:102E800048B300264FF490794946206800F034F9A1
:102E90004FF4AC7A5146206800F02EF92068AA7DE4
:102EA000A968C0F84415C0F8482520680121816050
:102EB000686870B94946206800F019F9074651461C
:102EC000206800F014F90743F4D000B10F2685F80C
:102ED00016803046C5E72046BDE8F04700F002B84E
:102EE000700100202DE9F04705462049287901EBC3
:102EF00040144FF000084FF48E773946286800F0F0
:102F0000EAF828684FF00109C0F8089021462868BF
:102F100000F05CFE606830BB4FF480760EE039460E
:102F2000286800F0D3F810B9A08AB042F7D1A08A7F
:102F3000B04203D02146286800F048FEA08AA17D57
:102F40008842ECD3A08AB04202D14FF00F0808E0CB
:102F50003946286800F0BAF80028F9D02868C0F887
:102F60000C900020A0754046BDE8F087700100205D
:102F70000079044901EB4010807D002800D0012039
:102F8000704700007001002070B5DDE904654FF066
:102F9000A04441EA420141EA830141EA062104EBEF
:102FA000800041EA0541C0F8001770BD70B5DDE949
:102FB00004654FF0A04441EA420141EA830141EA3D
:102FC000062104EB800041EA0541C0F8001770BDFE
:102FD00070B5DDE904654FF0A04441EA420141EAE1
:102FE000830141EA062104EB800041EA0541C0F873
:102FF000001770BD70B5DDE904654FF0A04441EAEB
:10300000420141EA830141EA062104EB800041EAE2
:103010000541C0F8001770BD1CB500220B46009298
:1030200011460192FFF7D4FF1CBD1CB50021009191
:103030000B46012201911146FFF7B8FF1CBD1CB5DC
:10304000002100910B46012201911146FFF7C0FFBC
:103050001CBD4FF0A04202EB800000F5E06002686A
:1030600022F440320260026842EA01410160704786
:103070004FF0A0420121814002F5A162116070472A
:1030800018B5074B1B6800936B46441805E053F8CE
:103090002010D1F8101502C2401C8442F7D818BD88
:1030A000744A000008B50349084400210160006823
:1030B000009008BD006000400349084400680128F2
:1030C00000D00020704700000060004040580028F9
:1030D00000D00120704708B50022425040580090AF
:1030E00008BDD0F80403084000D0012070474058C4
:1030F000002800D00120704708B5002242504058F7
:10310000009008BD1FB50D48FFF7DCFC0B48D0E967
:1031100007238169406A8DE80E00039011208DF825
:1031200003000023064A69460448FFF723FC08B160
:10313000FEF7C0FB0220FFF77EFB1FBD484B0000DF
:10314000093900001FB50C48D0E9032381684069A4
:103150008DE80E00039011208DF803000023074A2C
:1031600069460548FFF706FC08B1FEF7A3FB0220FD
:10317000FFF761FB1FBD0000484B0000093900004C
:1031800070B504460B4D286844602869844206D215
:103190002968A86B091DBDE8704000F0C1BE296810
:1031A000686B091D00F0BCFEE86A844200D2EC6244
:1031B00070BD00007800002070B58600002908D09E
:1031C0000D467DB1482000F0B3FA044634B12563C2
:1031D00009E0304600F0ACFA0546F2E7284600F078
:1031E000E1FE00E0002424B1A5223146206BFDF76A
:1031F00083F8204670BD000010B500F0BDFE0E4CF7
:103200002068A0B90D4800F07DFE0C48143000F095
:1032100079FE0A48E060143020610022102120204D
:1032200001F06CF8206010B105A100F0DBFEBDE8F4
:10323000104000F0ABBE0000B4000020AC02002043
:10324000546D72510000000070B5124E124D1CE01A
:1032500000F0BAFF306820B1002401F043FBA4B9AC
:1032600001E00124F9E700F087FEF068C468201D42
:1032700000F035FEE868401EE8606868401E68603F
:1032800000F084FE204600F055F868680028DFD181
:1032900070BD0000840200207800002030B40B468E
:1032A000026C002A0CD0C1681144C1604468A1427C
:1032B00001D30168C160C16830BC1846FDF70AB887
:1032C00030BC704770B5044616460025226C002AB3
:1032D00010D0C6B1E068FCF7FDFFE168206C091A68
:1032E000E1602268914202D26168081AE060022E11
:1032F00016D01AE02068C0B9606801F099FA054656
:103300000020606011E0A068FCF7E4FF216CA06879
:103310000844A0606168884207D32068A06004E088
:10332000A06B10B1A06B401EA063A06B401CA063FB
:10333000284670BD10B50446206B00F033FE2046D1
:10334000BDE8104000F02EBE0749CA681168002988
:1033500004D00021016019B1002070470121F9E774
:10336000D068006870470000B4000020074E4FF09E
:103370008054074DFFF768FF30680128FAD92C60A8
:1033800040BFBFF34F8FBFF36F8FF3E70C020020F6
:1033900004ED00E070B504461546002023180A5CD1
:1033A00083F834200A5C12B1401C0428F6D30026AE
:1033B00084F83760032D00D30225E562A563E66338
:1033C000201D00F0AAFD04F1180000F0A6FD246104
:1033D000C5F10300A0616462266484F8446070BD96
:1033E00070B50024124D04EB840005EB800000F062
:1033F00089FD641C032CF6D30D483C3000F082FD9F
:103400000B48503000F07EFD0948643000F07AFD32
:103410000748783000F076FD05488C3000F072FDEA
:10342000034904483C3141631431816370BD00009D
:103430000C0200207800002070B50024416000617B
:103440000C4D91420AD8D11A8269914201D30124CC
:103450000EE0011D286900F063FD09E09A4203D2E5
:10346000994201D3012403E0011DE86800F058FDF2
:10347000204670BDB400002010B5044600F07CFD6D
:10348000A06B20B1002400F081FD204610BD012476
:10349000F9E710B5044600F06FFDA06BE16B8842C0
:1034A00001D1012400E0002400F070FD204610BD91
:1034B000F8B505460E461048C068C068C468201DAF
:1034C00000F00DFDE069012810D1A0692B464119DB
:1034D00032462046FFF7B0FF012807D100200346FF
:1034E000014600902A46204601F098FA616A01B030
:1034F0002046BDE8F0400847B400002030B587B052
:10350000274D42E00398002803DADDE904200699FC
:1035100090470398002838DB059C606910B1201D96
:1035200000F0DDFC02A800F07FF8024603980A28AC
:103530002BD2DFE800F00505052A1F2705052A1F05
:103540000498A169034601442046FFF775FF01284E
:103550001BD1616A20468847E069012815D1002007
:1035600000900498A169002342181946204601F0F2
:1035700055FA0AE00498A061811813462046FFF727
:103580005BFF02E0204600F00DFD00231A4603A970
:10359000286800F0D1FE0028B4D107B030BD00008B
:1035A000B4000020F8B505460E4600F00DFE684652
:1035B00000F03AF80446009810B101F093F9F8BD14
:1035C00046B9A54206D801F08DF921462846FFF7F5
:1035D0006FFFF8BD0948291B006800F015FD01F0D8
:1035E00081F90028F5D106494FF08050086040BFAE
:1035F000BFF34F8FBFF36F8FF8BD0000B400002002
:1036000004ED00E00748416B0968002905D0416BD3
:10361000C968C9684968C16270474FF0FF31C1622B
:10362000704700007800002070B5054601F0A8F84A
:103630000446074EB068844204D200F00BF8012023
:10364000286001E000202860B460204670BD0000C2
:10365000B4000020F8B5154E1EE0C0680568C468C7
:10366000201D00F03CFC616A20468847E069012883
:1036700012D1A0692844A84206D960602461211DA6
:10368000F06800F04DFC07E0002003460146009082
:103690002A46204601F0C2F9F06801680029DCD111
:1036A000F0683169F1603061F8BD0000B4000020BD
:1036B000402080F31188FEE708B56846FFF744FE16
:1036C0000099FFF76FFFFFF719FFF6E770B50446A3
:1036D00000F052FC04F124050AE0606A58B1284663
:1036E00001F0D0F808B100F0D1FCA06C401EA0643D
:1036F000A06C0028F1DC4FF0FF35A56400F046FC1B
:1037000000F03AFC04F110060AE0206958B1304696
:1037100001F0B8F808B100F0B9FC606C401E6064BC
:10372000606C0028F1DC6564BDE8704000F02EBCE0
:1037300070B504460025600704D004F00700C0F10E
:103740000800044400F040FD0A4A506818B90A48CD
:1037500020F007005060106840F6F8730119994294
:1037600004D2814202D953681D18116001F0BAF8E1
:10377000284670BDC8000020DC020020044908680B
:10378000002803D00868C26B521CC26308687047E7
:103790007800002008B5074B1B6800932438009B75
:1037A0000362C1610449816142606FF0020140F827
:1037B000201908BD704B0000B13600002DE9F84F0C
:1037C00006460D4691469A4606EB09042046FEF74A
:1037D000E5FF07462046FEF7E1FF804621463846D2
:1037E000FCF791FD21464046FCF78DFD3246294607
:1037F0003846FCF76FFDB8194946FCF784FD0E4DBD
:1038000000202870E2B2434639460C480092FFF788
:103810004BF928780028FCD008EB06014A465046B0
:10382000FCF758FD4046FEF747FE3846FEF744FEDB
:103830000020BDE8F88F000074000020484B000015
:103840001CB518200024012200942346114601943F
:10385000FFF7D0FB4FF0A0414FF0807001F20C5108
:1038600008600220FEF7E7FF18200022009423469C
:1038700011460194FFF7BEFBBDE81C400220FEF795
:10388000DABF10B500220A60835CD400A3400C6844
:1038900023440B60521C042AF6DB10BD70B50546AC
:1038A0000C464FF48471E07D00280BD02846FFF7CA
:1038B00012FCD5F81805627EE1688854607E401CD1
:1038C000607670BD2846FFF706FCD5F8180570BD78
:1038D0001FB501238DF800308DF80810019206C83D
:1038E000684690471FBD10B504464FF4927120689A
:1038F000FFF7F1FB4FF484712068FFF7ECFB2068C1
:103900000121016010BD00000149012008707047CD
:1039100074000020F8B504460D46002685F82060A6
:103920000420C4F80803C4F80861D4F80801009022
:103930001079002802D01068007800E0E87FC4F811
:103940001C051079012804D910684078C4F81C05BA
:1039500005E0107B012802D9E87FC4F81C0528681F
:1039600018B10420C4F80403F8BDD4F8080100B16C
:1039700001200028F9D0C4F80861D4F808010090AB
:103980002946204600F0E9F80028EED1A87FFF285C
:10399000EAD0BDE8F840FFF76BBB000070B52DED35
:1039A000028B82B0574C04F120012078887080226D
:1039B00000210F20FEF7F9FB002204F120010C206A
:1039C000FEF72BFC012200210C20FEF737FC022021
:1039D000FEF7A8FBA068401CA0604B4D00210F2003
:1039E000FEF775FA28426060F8D02078401C2070FD
:1039F000A088400477D54FF4804200210F20FEF7C5
:103A0000D4FB00211020FEF762FA00F07F01142998
:103A100003D800223D48FEF7B4FA3C4900208870E4
:103A200038490A222C313948FCF778FC002855D156
:103A3000E068401CE060FEF7B1FA0546FEF7AAFA1E
:103A40000646FEF761FAFCF78FFD9FED311B53EC44
:103A5000112BFCF717FDFCF7ABFD08EE100A2B4805
:103A600001A90A30FFF70DFF284869460E30FFF71D
:103A700008FF701BDDE90012891AB7EE000A30EE6C
:103A8000481A00EE100AF8EEC00A00EE101AB8EE5E
:103A9000C00A40EE410AB6EE000A20EE800A10EE9F
:103AA000100AFCF772FD9FED1C1B53EC112BFCF769
:103AB000E9FC41EC100B84ED040B9FED191B51EC5C
:103AC000100B53EC112BFCF7DDFC41EC100B84EDDB
:103AD000060B53EC102B14A0FDF7A0F902B0BDECBF
:103AE000028B70BDFFE7144A00210F20FEF75DFB3B
:103AF000FEF758FA02B011A0BDEC028BBDE8704091
:103B0000FDF78CB91800002000D02724E000002029
:103B1000143BB1133BB103BEFA48CE3B1835B13D5F
:103B20000000001319DDB14144697374616E63656F
:103B3000203A2025660D0A00009027244E6F20733E
:103B400069676E616C0000000120FEF739FAFFF72B
:103B500025FF642000F076FAF9E738B5D0F818258B
:103B6000009291F820200B7E9A4203D29DF80030FB
:103B70004C69A35411F8202F521CD2B20A7013467C
:103B8000521C4C782039640707D50C7C944200D92C
:103B90000A740C7E944200D90A760C7C944205D9B2
:103BA000C968895CC0F81C15012038BD0D7E95429E
:103BB00004D9C97FC0F81C15012038BDA34201D328
:103BC000AB4201D2012038BD002038BD70B505469A
:103BD0000C464FF48E712846FFF77DFAA18AA06843
:103BE000415CA28A521CA282C5F81C1570BD1FB58B
:103BF00000228DF800208DF80810816801918275EF
:103C000006C8684690471FBD7CB50178274C00293F
:103C100038D001290ED002290BD18DF80010C068D0
:103C20000190611C0122C81DFEF7E8FF616868462B
:103C300088477CBD406801781D48FDF763FE1C4D38
:103C4000012630B18DF800600190616868468847B0
:103C500009E0A868E968081A28B100208DF800007A
:103C6000616868468847A868E968081AA988884290
:103C700006D80E490122491CC81DFEF7BFFF7CBDB6
:103C8000A6707CBD0A4809491030FDF71EFE30B110
:103C900003208DF800006168684688477CBD0349B1
:103CA000012201F10800FFF7C7F87CBD5C0000208D
:103CB000A40100202DE9FF4705460C464FF4007192
:103CC0002846FFF70EFA01274FF40178002618B3B3
:103CD0004FF4927949462846FFF7F8F9E0B1494692
:103CE0002846FFF7F8F9C5F80883A07E00B96F6091
:103CF00002208DF80000D5F88004C5F880040390F8
:103D0000E07D8DF80800E0680190E6752676D4E93C
:103D10000012684690472AE004212846FFF7E1F99F
:103D200028B34FF484712846FFF7D0F9F8B1214643
:103D30002846FFF7B3FDE07D617E884217D1207EE3
:103D400050B1E268617EE0752069E06026766676B3
:103D50002046FFF7BDFD0AE0A07E00B96F60C5F800
:103D60000883E675617EE2682046FFF7B1FD4FF4F7
:103D70008E7841462846FFF7A9F988B1A08AA17D2F
:103D8000884204D221462846FFF720FF08E041463A
:103D90002846FFF7A0F9A17D11B12046FFF727FFC4
:103DA0004FF4A27841462846FFF790F9002812D038
:103DB00041462846FFF78FF9A07E00B12F60E07DD5
:103DC000002808D0E675617EE26804B02046BDE8B0
:103DD000F047FFF77DBDBDE8FF872DE9FF410546B0
:103DE0000C464FF4927739462846FFF780F90026B3
:103DF000C0B139462846FFF77FF902208DF8000050
:103E0000D5F88004C5F880040390D5F83C058DF8FA
:103E10000800E0680190E6752676D4E9001268464D
:103E2000904727E04FF4887739462846FFF75FF937
:103E300000B339462846FFF75FF9D5F83C05C1B213
:103E4000E07D884216D1207E78B1E268D5F8000284
:103E500020F02000C5F80002207EE0752069E060B7
:103E600026762046FFF734FD04E0E6752046E2683A
:103E7000FFF72EFD4FF4A27739462846FFF737F9B2
:103E800068B139462846FFF737F9E07D38B1E67565
:103E9000D5F83C05E268C1B22046FFF719FD4FF4A2
:103EA000907631462846FFF722F900280FD0314698
:103EB0002846FFF721F9A07D002808D0D5F84C0549
:103EC00004B0C1B22046BDE8F041FFF790BEBDE8A6
:103ED000FF81EFF31180402181F311887047016960
:103EE000D0E901329A60D0E901235A604A688242DF
:103EF00001D182684A60002202610868401E0860A1
:103F00007047704700F1080141604FF0FF32826056
:103F1000C1600161002101607047002101617047AB
:103F200030B50C68621C02D000F1080202E00269A0
:103F300004E01A4653681D68A542FAD953684B60DD
:103F400099608A60516008610168491C016030BD58
:103F500042684A6093688B60936859609160086119
:103F60000168491C016070470248016841F4700112
:103F70000160704788ED00E0402080F3118802481E
:103F80000168491C01607047D0000020044908689E
:103F9000401E0860002801D180F31188704700009E
:103FA000D00000207047000010B50020FEF78EFC06
:103FB0001F210A48C0F808150121C0F804138160C8
:103FC00001600221C0F844130549E02008704FF059
:103FD000E0214FF40030C1F8000110BD0010014095
:103FE00011E400E010B50022064B53F832401CB13A
:103FF000521C022AF9D310BD43F8321003EBC20160
:10400000486010BDFC01002070B504460D46FFF766
:10401000B3FF626C4FF00000521C00D16064A26CD0
:10402000521C00D1A064FFF7B1FFA06B20B9294654
:1040300004F1240000F04EF82046BDE87040FFF780
:1040400045BB000010B502460020002A0DD000F04C
:10405000BBF80C4801698C180068001DFFF73FFF92
:104060002046FFF78DF800F03DFC002808D10649F6
:104070004FF08050086040BFBFF34F8FBFF36F8F8A
:1040800010BD00007800002004ED00E0014901208F
:10409000086270477800002070B50D460B4C21680F
:1040A0001831FFF73DFF2068001DFFF718FF681C5F
:1040B00005D020692844BDE87040FFF761B8216849
:1040C000BDE87040091D0248FFF742BF780000209C
:1040D0009802002070B50D46074C21681831FFF793
:1040E00037FF2068001DFFF7FAFE20692844BDE86D
:1040F0007040FFF745B800007800002070B5044616
:1041000000282CD0164DE06A2968C96A884226D258
:10411000A069002804DB2868C06AC0F10300A06120
:10412000E06A104E00EB8000616906EB800081427E
:1041300012D1201DFFF7D3FE2868C06AE0626969CA
:10414000884200D9686100EB800006EB8000211DE9
:10415000BDE87040FFF7FCBE2868C06AE06270BD31
:10416000780000200C02002002494A6A02600969B6
:1041700041607047780000201FB500240E4802946B
:10418000CDE9004023463C220CA10E48039400F0E8
:1041900079FA012801D100F01FFC01280BD1402041
:1041A00080F3118804480121083881610461BDE869
:1041B0001F4000F083B81FBD8000002049444C45DB
:1041C000000000006D3300000248016B491C0163D0
:1041D00070470000780000201349086B002802D0C7
:1041E00001200862704700200862104A02E0486916
:1041F000401E4861486900EB800052F8200000280A
:10420000F5D0486900EB800002EB800042685268FC
:10421000426000F108039A4201D15268426040684E
:10422000C068086070470000780000200C02002081
:104230000078022803D0012803D1FFF762BEFFF700
:1042400060BE70472DE9F84F05468A46904699466C
:1042500005EB08042046FEF7A1FA06462046FEF7C5
:104260009DFA074621463046FCF74DF82146384670
:10427000FCF749F82A4651463046FCF72BF87019EE
:1042800042464946FCF726F80A4D00202870E2B263
:104290003B46314608480092FEF706FC2878002885
:1042A000FCD03846FEF708F93046FEF705F9002045
:1042B000BDE8F88F74000020484B00000C49E02056
:1042C0000870FFF771FE0B4800210160FFF74CFEFC
:1042D0000948016841F04041016005481238016811
:1042E00041F010010160FBF7A7FFFFF7E1F90000C3
:1042F00022ED00E0D000002034EF00E070B506466B
:104300000D460024002D12D006FB05F0401C4C3059
:10431000FFF70EFA48B104465DB14C302060E66309
:1043200025640121204600F09DF8204670BD002044
:10433000EDE72460F3E700002DE9FF4782B0044673
:104340008A4699460025A8464FF08056444FFFF70D
:1043500013FEA06B98B3E56851462046FEF79EFF1A
:10436000B9F1000F13D0E560606A50B104F1240088
:1043700000F088FA28B13E6040BFBFF34F8FBFF313
:104380006F8FFFF703FE012006B0BDE8F087A06B3A
:10439000401EA063206810B9FFF7F0F96060206943
:1043A0000028EED004F1100000F06CFA0128E8D1EA
:1043B0003E6040BFBFF34F8FBFF36F8FE1E7FFE772
:1043C000049808B125B107E0FFF7E0FD0020DBE726
:1043D0006846FFF7C9FE0125FFF7D8FDFFF7F4FE99
:1043E000FFF7CAFD606C401C01D1C4F84480A06C8A
:1043F000401C01D1C4F84880FFF7C8FD04A96846F5
:1044000000F018F930B12046FFF760F900F06AFAC1
:104410000020B9E72046FFF72FF8D8B1206830B95F
:10442000FFF7AAFD6068FFF769FEFFF7AFFD04F133
:1044300024000499FFF730FE2046FFF747F900F00B
:1044400051FA002883D13E6040BFBFF34F8FBFF3C6
:104450006F8F7CE72046FFF739F900F043FA76E7E3
:1044600004ED00E070B504460D46FFF785FDD4E984
:104470000F12206801FB020060600020A06320682A
:10448000A060E06B226C2168401E00FB0210E0601F
:104490004FF0FF306064A06404F110004DB1FFF7ED
:1044A00031FD04F12400FFF72DFDFFF76FFD012022
:1044B00070BD21690029F8D000F0E4F90128F4D199
:1044C00004490007086040BFBFF34F8FBFF36F8FF1
:1044D000EBE7000004ED00E02DE9FF4782B0044661
:1044E0008A4699460025A8464FF08056384FFFF778
:1044F00043FDA06BE16B884206D3B9F1020F03D0F4
:10450000049810B32DB328E04A4651462046FEF7E2
:10451000D9FE616A61B104F1240000F0B3F9012809
:104520000DD13E6040BFBFF34F8FBFF36F8F06E0EA
:1045300028B13E6040BFBFF34F8FBFF36F8FFFF7CF
:1045400025FD012006B0BDE8F087FFF71FFD002024
:10455000F8E76846FFF708FE0125FFF717FDFFF7AC
:1045600033FEFFF709FD606C401C01D1C4F84480A4
:10457000A06C401C01D1C4F84880FFF707FD04A9D6
:10458000684600F057F830B12046FFF79FF800F07A
:10459000A9F90020D6E72046FEF77BFF90B104F191
:1045A00010000499FFF778FD2046FFF78FF800F020
:1045B00099F900289BD13E6040BFBFF34F8FBFF3F6
:1045C0006F8F94E72046FFF781F800F08BF98EE7B4
:1045D00004ED00E02DE9F0410446884616461F46EA
:1045E000FFF777FC0546A06BE16B884207D3022FEB
:1045F00005D00020E9B281F31188BDE8F0813A4688
:1046000041462046FEF75EFEA06C401C04D0A06C24
:10461000401CA0640120EDE7606A0028FAD004F194
:10462000240000F02FF90028F4D0002EF2D0012051
:104630003060EFE770B504460D46FFF79DFC10496A
:1046400008692A68531C08D02368496A8B4206D03F
:104650006168814203D801240DE000240BE0616809
:10466000401A904206D2101A28602046FFF77CFDBF
:10467000002400E00124FFF789FC204670BD000003
:10468000780000202DE9FF4F81B08246DDE90E68F9
:10469000109917469B463846FEF78EFD04462E4D70
:1046A000F4B3216B781E01EB800020F0070900971E
:1046B00032462046119B0299FEF76CFE5A4651463F
:1046C0004846FFF767F82060B8F1000F01D0C8F83E
:1046D0000040FFF751FCE868401CE860286810B112
:1046E000A86938B10BE02C60E868012807D1FEF713
:1046F00077FE04E02868C06AB04200D82C60A86A3F
:10470000401CA862E06A6969884200D9686113495F
:1047100000EB800001EB8000211DFFF719FC00E099
:1047200003E00124FFF732FC01E04FF0FF34012CDD
:104730000DD1A86958B12868C06AB04207D20849AB
:104740002007086040BFBFF34F8FBFF36F8F05B0E6
:104750002046BDE8F08F0000780000200C02002009
:1047600004ED00E005488169002903D0006B18B111
:104770000020704701207047022070477800002019
:104780000148006970470000780000202DE9F041E1
:104790000027254E306B002808D0F069401CF061DE
:1047A000306A00B101273846BDE8F0813069401C0D
:1047B0003061356945B9706BB16B7163B063706A14
:1047C000401C7062FEF71EFFF06A8542E8D3706BF2
:1047D000006838B1706BC068C4686068854205D2F3
:1047E000F062DDE74FF0FF30F062D9E7201DFFF700
:1047F00076FBA06A18B104F11800FFF770FBE06ABD
:104800007169884200D97061084900EB800001EBB2
:104810008000211DFFF79CFBE06A3168C96A88426D
:10482000D5D30127D3E70000780000200C02002038
:1048300010B504460020002C1FD0E16B491EE16337
:10484000A36BE26A9A4218D0002916D1201DFFF707
:1048500046FBA06BE062C0F10300A0610749E06A7B
:104860004A69904200D94861054900EB800001EB9C
:104870008000211DFFF76CFB012010BD7800002097
:104880000C02002070B5C068C46804F11800064628
:10489000FFF725FB114D2A6B62B131461048FFF737
:1048A00057FBE06A2968C96A884215D901200121AD
:1048B000296270BD201DFFF712FBE06A696988421A
:1048C00000D96861064900EB8000643901EB800083
:1048D000211DFFF73DFBE4E7002070BD78000020BC
:1048E000700200202DE9F0410027FFF745FB274D1E
:1048F000286B401E2863286BE8BBE868D8B3DFF854
:10490000908001261DE0D8F80C00C46804F118005E
:10491000FFF7E5FA201DFFF7E2FAE06A69698842CD
:1049200000D9686100EB80011948643800EB810010
:10493000211DFFF70DFBE06A2968C96A884200D390
:104940002E62D8F800000028DDD1E86938B909E006
:10495000FFF71CFF00B12E62E869401EE861E869BC
:104960000028F5D1286A01280AD101270949000742
:10497000086040BF00E003E0BFF34F8FBFF36F8FCD
:10498000FFF704FB3846BDE8F08100007800002006
:104990007002002004ED00E02DE9F0470646DDF846
:1049A00020900D4617469846002D13D02820FEF77C
:1049B000BFFE04465CB1FEF71FFC2660A561E761FF
:1049C000C4F82080C4F82490201DFFF7A6FA2046E2
:1049D000BDE8F0870024FAE71FB50024FEF70CFCC1
:1049E0000A48006870B109490020091DCDE901108D
:1049F0000222034600920390502205A10648FFF7C9
:104A000041FE044604B0204610BD0000B400002062
:104A1000546D722053766300B93600002DE9FF41D2
:104A200006460A9F9C460020114D2C68002C0ED093
:104A3000009101920296062913DAFFF793FE0228ED
:104A400008D000231A4669462868FFF745FD04B0E0
:104A5000BDE8F08100233A4669462868FFF73CFD2F
:104A6000F5E70023624669462046FFF7B3FDEEE70F
:104A7000B400002000000050FFFFFFFFFFFFFFFF1A
:104A8000FFFFFFFFFFFFFFFF00000000000000002E
:104A90000000D60107010000000001020304000528
:104AA000405C0000A05C0400C06C0800805C040056
:104AB000E03F1E00E07D1E000704000908054008D5
:104AC00009104008080540081D0400081D040008DE
:104AD0001E265626BEBED8BC07A9022570889B8814
:104AE000401008000A001600010006000100020044
:104AF00087008D002D001A3152001A339A001A35A2
:104B00001D011A376B003B31BE003B335E013B3564
:104B100096023B37000098599859EA518E421E453B
:104B2000142E0080EA51F4283233E03A703DE03A26
:104B3000C235842BC2353233C235C235AE47E03A76
:104B40005038A230503800000040004004000000FF
:104B5000101412FF06FF00000000002000000000FB
:104B6000101412FF06FF000000000080000000008B
:104B7000000000010B00000005000000FFFFFFFF28
:104B8000FFFFFFFF000000000000D601AC4B00005B
:104B900000000020E00000003C0E00008C4C0000F3
:104BA000E0000020185400004C0E0000000000003F
:104BB0000000000000000000050214000A0A0002C4
:104BC0000000810000000000000000000000000064
:104BD00000000000000000000000000000000000D5
:104BE00000000000418800CADE57415645E0000041
:104BF000418800CADE56455741E100000000000030
:104C000000000000000000000000000000000000A4
:104C1000002000400000000000000000C40100204F
:104C20000000000000000000000000000000000084
:104C30000000000000000000000000000000000074
:104C40000000000000000000000000000000000064
:104C5000FFFFFFFF00000000000000000000000058
:104C60000000000000000000000000000000000044
:104C70000000000000000000000000000000000034
:0C4C80000090D0030000000000000000C5
:0400000500000201F4
:00000001FF
